:020000040800F2
:1000000000000220153B0008C50E0008C90E0008BC
:10001000CD0E0008D10E0008D50E0008000000002B
:10002000000000000000000000000000D90E0008E1
:10003000DD0E000800000000E10E0008E50E0008DB
:100040006D3B00086D3B00086D3B00086D3B0008F0
:100050006D3B00086D3B00086D3B00086D3B0008E0
:100060006D3B00086D3B00086D3B00086D3B0008D0
:100070006D3B00086D3B00086D3B00086D3B0008C0
:100080006D3B00086D3B00086D3B00086D3B0008B0
:100090006D3B00086D3B00086D3B00086D3B0008A0
:1000A0006D3B00086D3B00086D3B00086D3B000890
:1000B0006D3B00086D3B00086D3B00086D3B000880
:1000C0006D3B00086D3B00086D3B00086D3B000870
:1000D0006D3B00086D3B00086D3B00086D3B000860
:1000E0006D3B00086D3B00086D3B00086D3B000850
:1000F0006D3B00086D3B00086D3B00086D3B000840
:100100006D3B00086D3B00086D3B00086D3B00082F
:100110006D3B00086D3B00086D3B00086D3B00081F
:100120006D3B00086D3B00086D3B00086D3B00080F
:100130006D3B00086D3B00086D3B00086D3B0008FF
:100140006D3B00086D3B00086D3B0008F10E000898
:100150006D3B00086D3B00086D3B00086D3B0008DF
:100160006D3B00086D3B00086D3B00086D3B0008CF
:100170006D3B00086D3B00086D3B0008000000006F
:080180006D3B00086D3B000817
:1001880010B5054C237833B9044B13B10448AFF3C9
:1001980000800123237010BD5C01002000000000D6
:1001A800803D000808B5064B1BB106480649AFF369
:1001B80000800648036813B1054B03B1984708BD92
:1001C80000000000803D0008600100205C01002064
:1001D800000000004BB942B9002908BF002802D02E
:1001E8004FF0FF31084600F03BB882B0EC462DE9ED
:1001F800005000F01DF8DDF804E002B00CBC7047B8
:100208002DE97043069E14461D468046894600F037
:1002180029F804FB01F300FB0533A4FB00451D444A
:10022800B8EB040469EB0505C6E90045BDE8708331
:100238002DE97043069E1446804689461D4600F007
:100248005DF900FB05F504FB0153A0FB04451D44C3
:10025800B8EB040469EB0505C6E90045BDE8708301
:10026800704700BF00292DE9F00FC0F29F800024DD
:10027800002BC0F29680154606460F46002B3ED14D
:100288008A4257D9B2FA82F34BB1C3F1200201FA7C
:1002980003F720FA02F29D40174300FA03F6290CEF
:1002A800B7FBF1F2330C01FB127CA8B243EA0C470E
:1002B80000FB02F3BB4209D97F1902F1FF3C80F031
:1002C8000181BB4240F2FE80023A2F44FF1AB7FB7D
:1002D800F1F3B6B201FB137146EA014100FB03F0EA
:1002E800884208D9491903F1FF3780F0ED80884228
:1002F80040F2EA80023B43EA0242002303E08B42D9
:100308000AD900231A461046194614B1404261EB37
:100318004101BDE8F00F7047B3FA83F8B8F1000F58
:1003280040F084808B4202D3824200F2DE800023B8
:100338000122E8E712B90123B3FBF2F5B5FA85F219
:10034800002A39D17F1B280C1FFA85FC0123B7FB33
:10035800F0F1320C00FB117742EA07470CFB01F27F
:10036800BA4207D97F1901F1FF3802D2BA4200F226
:10037800C1804146BF1AB7FBF0F2B6B200FB12705B
:1003880046EA00400CFB02FC844507D9401902F1FB
:10039800FF3702D2844500F2AB803A4642EA014276
:1003A800B1E7E443524263EB430364E7404261EB45
:1003B80041014FF0FF345BE79540C2F1200327FA73
:1003C80003F1280C26FA03F39740B1FBF0F81F431A
:1003D8003B0C00FB18111FFA85FC43EA01410CFB9A
:1003E80008F38B4206FA02F608D9491908F1FF32D8
:1003F80079D28B4277D9A8F102082944C91AB1FBEE
:10040800F0F3BFB200FB131147EA01470CFB03F2FC
:10041800BA4207D97F1903F1FF3160D2BA425ED9D7
:10042800023B2F44BF1A43EA084390E7C8F1200271
:1004380003FA08FC25FA02F343EA0C0C4FEA1C49BC
:1004480021FA02F301FA08F720FA02F2B3FBF9F1F4
:10045800174309FB11333A0C1FFA8CFB42EA03439A
:100468000BFB01FA9A4505FA08F008D913EB0C03BF
:1004780001F1FF3235D29A4533D902396344CAEBC8
:100488000303B3FBF9F209FB1233BFB247EA034790
:100498000BFB02F9B94508D917EB0C0702F1FF333A
:1004A8001BD2B94519D9023A674442EA0145A5FB6E
:1004B8000001C9EB07078F424FF000030AD305D0AC
:1004C8002A4620E7624601E73B4614E706FA08F6A3
:1004D8008642F5D26A1E002315E71A46E5E70B4661
:1004E800A0E71146CBE7904688E7434642460AE72D
:1004F800023A53E702392F443CE700BF2DE9F00FD9
:10050800144605460E46002B43D18A4253D9B2FA07
:1005180082F757B1C7F1200620FA06F601FA07F369
:1005280002FA07F41E4300FA07F5210CB6FBF1F2B4
:100538002B0C01FB1267A0B243EA074600FB02F34B
:10054800B34209D9361902F1FF3780F0F680B34279
:1005580040F2F380023A2644F61AB6FBF1F3ADB244
:1005680001FB136145EA014100FB03F0884208D909
:10057800091903F1FF3680F0E280884240F2DF80FB
:10058800023B43EA0242002310461946BDE8F00F39
:1005980070478B424AD8B3FA83F6002E4DD18B426E
:1005A80002D3824200F2D680002301221046194667
:1005B800BDE8F00F704712B90124B4FBF2F4B4FAA5
:1005C80084F2002A7CD1091B260CA7B20123B1FBB7
:1005D800F6F02A0C06FB101142EA014107FB00F273
:1005E8008A4207D9091900F1FF3C02D28A4200F277
:1005F800C3806046891AB1FBF6F2ADB206FB121150
:1006080045EA014507FB02F7AF4208D92C1902F168
:10061800FF3180F09680A74240F29380023A42EA86
:10062800004210461946BDE8F00F704700231A46ED
:1006380010461946BDE8F00F7047C6F1200522FAAA
:1006480005F4B3401C434FEA144821FA05F301FAB4
:1006580006F720FA05F5B3FBF8FC2F4308FB1C331B
:100668003D0C1FFA84FA45EA03430AFB0CF9994545
:1006780002FA06FB04D91B190CF1FF326DD394461C
:10068800C9EB0303B3FBF8F508FB1533BFB247EA20
:1006980003470AFB05F8B84504D93F1905F1FF33AC
:1006A80061D31D4645EA0C4CACFB0B23C8EB07078E
:1006B8009F424FF0000549D345D062462B4663E779
:1006C8009440C2F1200321FA03FC260C20FA03F31C
:1006D80001FA02F5BCFBF6F843EA05010B0C06FB30
:1006E80018CCA7B243EA0C4C07FB08F3634500FAA1
:1006F80002F509D91CEB040C08F1FF323AD2634524
:1007080038D9A8F10208A444C3EB0C0CBCFBF6F3DF
:1007180089B206FB13CC41EA0C4107FB03F28A427B
:1007280007D9091903F1FF3022D28A4220D9023BA6
:100738002144891A43EA084349E73A460CE7334615
:100748001FE70A466BE7B0409042B6D20CF1FF3281
:10075800002319E73346324616E799458FD9ACF19D
:10076800020C23448CE7B8459BD9023D274499E7FE
:100778000346DEE79046C7E7023821443AE700BF60
:1007880030B58BB000240094284B1A6B42F08002DD
:100798001A631A6B02F080020092009A01941A6B95
:1007A80042F001021A631A6B02F001020192019AE7
:1007B80002941A6B42F002021A631A6B02F00202E8
:1007C8000292029A03941A6B42F008021A631A6B97
:1007D80002F008020392039A04941A6B42F0100282
:1007E8001A631B6B03F010030493049B4FF48053AC
:1007F800059311230693079408940D4805A902F060
:1008080057FA10230593069407940A4D284605A91C
:1008180002F04EFA082305930123069307940894DF
:10082800284605A902F044FA0BB030BD0038024052
:100838000000024000040240F0B587B0044600F50D
:100848000037BF0221480821012202F037FB02F0DD
:10085800E1F8102C08D0202C06D0302C04D0402CE5
:1008680002D014F07F0F0ED10023009302230493CB
:10087800174A1388591C1180029301230393684671
:1008880005A902F0C3F90024124D022612E0E31C68
:10089800EA5CA31CEB5C03EB0222631CEB5C03EB3E
:1008A80002222B5D03EB022230463919002302F0A5
:1008B80001F90434B4F5806FE9DB0448082100220B
:1008C80002F0FCFA02F0BAF807B0F0BD00040240EA
:1008D800000000207C010020FEE700BF00B595B0B5
:1008E800002201922B4B196C41F0805119641B6C4A
:1008F80003F080530193019B0292274B1A6842F43C
:1009080080421A601B6803F480430293029B012310
:1009180008934FF48033099302230E934FF4800217
:100928000F9204221092A822119212930723139374
:1009380008A801F0D7FC18B11848F621FFF7CCFF3A
:100948000F23039302230493002305934FF4A0532A
:1009580006934FF48053079303A8052101F00CFF79
:1009680020B10E484FF48171FFF7B6FF01F0BEFFCA
:100978000B4BA3FB0020800902F00EFB042002F0C1
:1009880021FB4FF0FF3000210A4602F0B5FA15B0FE
:100998005DF804FB0038024000700040983D0008F4
:1009A800D34D62102DE9F04383B002F043FBFFF70B
:1009B80095FFFFF7E5FE00250095444C236C43F0B6
:1009C80080532364236C03F080530093009B02F050
:1009D8007BFA0195236B43F480232363236B03F491
:1009E80080230193019B3A4B1B683A4A136044F2F7
:1009F8004C2293420BD03848102102F059FA30B1FA
:100A0800364B1B68364A126882F3088898470022DA
:100A18002F4B1A6000F078F8324CDFF8E88008F1C4
:100A280040092378012BFCD10023237040462E492E
:100A3800072203F0CFF8E8B998F8073013B1012B73
:100A48000AD0EEE71022294B1A600022284B1A80A0
:100A58000122284B1A80E4E7254B1B889BB21BB167
:100A6800224B1868FFF7E8FE642002F00FFB02F043
:100A780081FAD6E71E4B1D8847461F4B13FA85F5AA
:100A88003E460FCE28606960AA60EB603746103595
:100A98004E45F5D1164B1A88403292B21A801B88FF
:100AA8009BB2B3F5806FBCD1104D2868FFF7C4FE28
:100AB8002B6801332B6000220D4B1A800F4902234B
:100AC800CB710F48082203F003F8AAE70038024068
:100AD80000400240CC050020000402400440000809
:100AE800004000087C0500200C00002014000020B5
:100AF80078010020000000207C0100200400002074
:100B0800D80500208C05002010B5094C204609495D
:100B1800002202F0F5FA2046074902F009FB2046B8
:100B2800064902F0EBFF204602F00AFB10BD00BFA9
:100B3800D805002018000020B40000204C00002038
:100B480010B586B00368B3F1A04F25D14FF4C05358
:100B580001930223029300240394032304930A239A
:100B680005930E4801A902F0A3F80D4B5A6B42F009
:100B780080025A6300945A6C42F480425A645B6C57
:100B880003F480430093009B43202146224602F051
:100B9800B3F9432002F0E2F906B010BD00000240AC
:100BA8000038024008B50146D0F8EC0301F56F7132
:100BB80002F0E2FA08BD00BF08B5C1EBC10300EBC3
:100BC8008303D0F8EC03D3F8042202F003FB08BD3A
:100BD80008B5C1EBC10300EB8303D0F8EC035A6CF2
:100BE80002F028FB08BD00BF08B5D0F8EC0302F0FE
:100BF800A7FB08BD10B50446C168D0F8EC03003166
:100C080018BF012102F088FBD4F8EC0302F064FB62
:100C180010BD00BF10B50446D0F8EC0302F080FB0D
:100C28002368D3F8002E42F00102C3F8002E236A8D
:100C380023B1034B1A6942F006021A6110BD00BFC6
:100C480000ED00E008B5D0F8EC0302F073FB08BD36
:100C580008B5D0F8EC0302F081FB08BD08B5D0F860
:100C6800EC0302F079FB08BD08B5D0F8EC0302F0FC
:100C780077FB08BD08B5D0F8EC0302F073FB08BD9C
:100C880010B5037863BB174BC3F8EC03C0F82032E8
:100C98004FF0A0421A6004225A600221D960002253
:100CA8001A615A619961DA611A625A62DA621A63E0
:100CB800184600F09FF920B10B484FF4A571FFF7D3
:100CC8000BFE084C2046802100F0F8FD204600214C
:100CD800402200F0CFFD20460121802200F0CAFD0D
:100CE800002010BDFC070020A43D000808B5D0F87E
:100CF800200200F0EFF920B102280CBF01200220E9
:100D080008BD002008BD00BF10B51446D0F8200269
:100D18001A46234600F0BCFC20B102280CBF012073
:100D2800022010BD002010BD08B5D0F8200200F048
:100D3800DDFC20B102280CBF0120022008BD0020E4
:100D480008BD00BF08B5D0F8200200F035FD20B17D
:100D580002280CBF0120022008BD002008BD00BFEA
:100D680008B5D0F8200200F059FD20B102280CBFC8
:100D78000120022008BD002008BD00BFD0F82032A5
:100D880011F0800F01F07F01C1EBC10103EB81037A
:100D980014BF93F83A0093F8FA01704708B5D0F8F1
:100DA800200200F063FC20B102280CBF01200220C1
:100DB80008BD002008BD00BF08B5D0F8200200F02B
:100DC800DBFC20B102280CBF0120022008BD002056
:100DD80008BD00BF08B5D0F8200200F0ADFC20B176
:100DE80002280CBF0120022008BD002008BD00BF5A
:100DF80012230B80004870473800002004230B8022
:100E0800004870473400002008B50A4602480349E4
:100E180002F020FD014808BDB43D0008EC0B00209D
:100E280010B50A46034C0448214602F013FD20463B
:100E380010BD00BFEC0B0020CC3D000808B50A46E9
:100E48000248034902F006FD014808BDE03D0008DC
:100E5800EC0B002008B50A460248034902F0FAFCE8
:100E6800014808BDEC3D0008EC0B002008B50A4617
:100E78000248034902F0EEFC014808BD083E00089C
:100E8800EC0B00200020704700207047084BD3F877
:100E980018020023074903E0C25CCA540133DBB2DD
:100EA8003F2BF9D90122044B1A700020704700BF6C
:100EB800D80500208C0500207C050020704700BF65
:100EC800FEE700BFFEE700BFFEE700BFFEE700BF8A
:100ED800704700BF704700BF704700BF08B502F0F9
:100EE800C3F802F07DF808BD08B5024800F008F91B
:100EF80008BD00BFFC07002008B5032001F0EAFF89
:100F08006FF00B0000210A4601F0F6FF6FF00A00AF
:100F180000210A4601F0F0FF6FF0090000210A469F
:100F280001F0EAFF6FF0040000210A4601F0E4FF37
:100F38006FF0030000210A4601F0DEFF6FF00100A8
:100F480000210A4601F0D8FF4FF0FF3000210A4681
:100F580001F0D2FF08BD00BF2DE9F04F83B007466E
:100F68008A460368C1EBC10400EB84043834A169E4
:100F78006569A2686D1A954228BF154605F1030BED
:100F88004FEA9B0B1E4603EB4A185FFA8AF916E0F4
:100F98009D1AA3689D4228BF1D4605F1030B4FEA21
:100FA8009B0BE1683B7C009330464A46ABB200F0AD
:100FB80061FFE3682B44E360A3692B44A3613146D6
:100FC800D8F818399BB25B4505D9A26963699A427A
:100FD80001D2002BDCD145B9012303FA0AFAD1F872
:100FE800343823EA0A03C1F83438002003B0BDE8D6
:100FF800F08F00BFF0B58BB00546002867D00323FB
:1010080080F8B933FFF79CFD286800F0B9FC2C463E
:1010180054F8107B6E460FCC0FC60FCC0FC694E861
:10102800030086E803002B1D0ECB384600F066FC53
:101038002868002100F0AAFC0023012619460EE0CA
:10104800C3EBC30205EB820282F8396082F83830BC
:10105800D38782F83B1011645164D16401330E2B9D
:10106800EED90023194617E0C3EBC30205EB820251
:1010780082F8F91182F8F831D38782F8FB11C2F8A7
:101088000012C2F80412C2F80C122A6803F14000D8
:1010980002EB8002516001330E2BE5D92C4654F83F
:1010A800107B6E460FCC0FC60FCC0FC694E803001A
:1010B80086E803002B1D0ECB384600F0A7FC012361
:1010C80085F8B933286801F08FF8002000E0012086
:1010D8000BB0F0BD10B5044690F8B833012B0CD016
:1010E800012380F8B833006801F072F8206800F036
:1010F80041FC002084F8B80310BD022010BD00BFD9
:101108002DE9F84F04460668304601F0A9F8002892
:1011180040F08C82206801F073F8002800F0868285
:10112800206801F06DF810F0020F04D023685A69A6
:1011380002F002025A61206801F062F810F4002FF0
:101148005FD0206801F060F8074600254FF0100BCB
:101158004FF0010A52E017F0010F4DD05FFA85F900
:101168002068494601F060F8804610F0010F31D040
:1011780006EB4513C3F808AB03F530632269012A6F
:1011880013D1C5EBC50204EB820202F50071D2F857
:1011980000021B69C3F31203C01AC2F81002D2F886
:1011A8000432D2F8002213444B6020464946FFF728
:1011B80003FD2369012B0DD165B9C5EBC50304EB0C
:1011C8008303D3F80C322BB92068514604F56F72AB
:1011D80001F066F818F0080F07D02046FFF7E2FC88
:1011E80006EB45130822C3F8082B18F0100F03D09C
:1011F80006EB4513C3F808BB01357F08002FAAD1B9
:1012080000E00025206800F0FBFF10F4802F6DD06F
:10121800206801F001F8074600254FF0020B4FF057
:10122800400A61E017F0010F5CD05FFA85F9206889
:10123800494601F003F8804610F0010F2DD0012334
:1012480003FA05F0D6F8341821EA0001C6F8341874
:1012580006EB4512C2F808392369012B09D1C5EB01
:10126800C50204EB820202F14003516C126C114476
:10127800596020464946FFF7ABFC2369012B0CD186
:101288005DB9C5EBC50304EB8303DB6C2BB92068A0
:10129800012104F56F7201F003F818F0080F04D06B
:1012A80006EB45130822C3F8082918F0100F04D0DC
:1012B80006EB45131022C3F8082918F0400F03D095
:1012C80006EB4513C3F808A918F0020F03D006EB84
:1012D8004513C3F808B918F0800F03D020462946F3
:1012E800FFF73AFE01357F08002F9BD1206800F0F8
:1012F80087FF00280DDAD6F8042822F00102C6F884
:1013080004282046FFF79EFC23685A6902F0004231
:101318005A61206800F074FF10F4006F0CD0D6F802
:10132800083813F0010F02D02046FFF773FC23683A
:101338005A6902F400625A61206800F061FF10F4F3
:10134800805F4FD0374606F50068D8F8043023F0A0
:101358000103C8F804302068102100F02DFB002399
:10136800FF2106E007EB4312C2F80819C2F8081B70
:10137800013362689A42F5D84FF0FF33C8F8183045
:10138800D8F81C3043F00113C8F81C30236B63B144
:10139800D8F8843043F00B03C8F88430D8F84430C8
:1013A80043F00B03C8F844300BE0D8F8143043F08E
:1013B8000B03C8F81430D8F8103043F00B03C8F802
:1013C8001030D6F8003823F4FE63C6F800382068D9
:1013D800217C04F56F7200F063FF23685A6902F4F8
:1013E80080525A61206800F00BFF10F4005F00F093
:1013F8008F80206800F038FF2368DA6822F4705282
:10140800DA60206800F0AAFB50B90023E3604FF4CB
:10141800007363612368DA6842F41052DA606FE09F
:101428000323E3604023636101F060FA804B0344C7
:10143800804A934205D82368DA6842F47052DA6029
:101448005EE07D4B03447D4A934205D82368DA6801
:1014580042F46052DA6053E0A0F57403A3F5105328
:10146800774A934205D82368DA6842F45052DA6022
:1014780046E0A0F18373A3F5E743724A934205D887
:101488002368DA6842F44052DA6039E06E4B03446C
:101498006E4A934205D82368DA6842F43052DA601B
:1014A8002EE06B4B03446B4A934205D82368DA68F5
:1014B80042F42052DA6023E0674B0344674A9342C0
:1014C80005D82368DA6842F41052DA6018E0A0F10F
:1014D800B773A3F55853624A934205D82368DA686C
:1014E80042F40052DA600BE05E4B03445E4A9342DA
:1014F8002368DA6894BF42F4E05242F4C052DA60DA
:101508002046FFF777FB23685A6902F400525A61B4
:10151800206800F075FE10F0100F3BD023689A6920
:1015280022F010029A61376A07F00F03C3EBC30376
:1015380004EB830303F5FC78C7F34342022A15D171
:1015480047F6F0733B4020D01F093046D8F80C10FE
:101558003A4600F0BDFDD8F80C303B44C8F80C30D2
:10156800D8F818303B44C8F818300EE0062A0CD1D9
:10157800304604F56F71082200F0AAFDC7F30A1778
:10158800D8F818303B44C8F8183023689A6942F0F4
:1015980010029A61206800F033FE10F0080F07D09F
:1015A8002046FFF721FB23685A6902F008025A61B6
:1015B800206800F025FE10F4801F08D02046E9B20C
:1015C800FFF74CFB23685A6902F480125A612068BD
:1015D80000F016FE10F4001F08D02046E9B2FFF70D
:1015E80037FB23685A6902F400125A61206800F038
:1015F80007FE10F0804F07D02046FFF735FB236821
:101608005A6902F080425A61206800F0F9FD10F032
:10161800040F0BD023685D6815F0040F02D0204634
:10162800FFF728FB23685A6815435D60BDE8F88F0B
:10163800405327FFFF340C00401E1BFF3F420F00A2
:101648007F4F12001FD6130060B6E5FE5FE3160059
:1016580000D3CEFE3F771B00C05BB3FEBF912100D5
:101668001F753800E05459FEDF9C410010B5044650
:1016780090F8B833012B09D0012380F8B8330068FB
:1016880000F096FD002084F8B80310BD022010BDBC
:1016980038B50546C8B210F0800F01F07F04C4EBDE
:1016A800C40405EB840414BF383404F5FC7401F059
:1016B8007F012170C0096070A260E37000B1E18011
:1016C800022B04BF0023237195F8B833012B0AD0ED
:1016D800012385F8B8332868214600F05FFA002016
:1016E80085F8B80338BD022038BD00BF10B50446E0
:1016F800CAB212F0800F01F07F03C3EBC30300EB03
:10170800830314BF383303F5FC7301F07F011970AC
:10171800D2095A7090F8B823012A0AD0012280F819
:10172800B8230068194600F081FA002084F8B8034D
:1017380010BD022010BD00BF38B5044601F07F007F
:10174800C0EBC005AD0005F5FC756119CA604B61B9
:1017580000238B614B7060552369012B08BF0A6118
:1017680020B92068227C00F0D7FA03E02068227CA8
:1017780000F094FB002038BD38B5044601F07F0026
:10178800C0EBC005AD0038356119CA604B61002354
:101798008B6101234B7060552369012B08BF0A61D7
:1017A80020B92068227C00F0B7FA03E02068227C88
:1017B80000F074FB002038BD38B50446CAB212F0F8
:1017C800800F07D001F07F03C3EBC30300EB830353
:1017D800383305E0C1EBC10300EB830303F5FC7369
:1017E8000120987001F07F051D70D2095A7094F895
:1017F800B823824210D084F8B8032068194600F054
:101808007BFC2DB92068217C04F56F7200F048FD3F
:10181800002084F8B80338BD022038BD10B504464E
:10182800CAB212F0800F07D001F07F03C3EBC303E5
:1018380000EB8303383305E0C1EBC10300EB8303FE
:1018480003F5FC730020987001F07F011970D2092C
:101858005A7094F8B823012A0AD0012284F8B823D0
:101868002068194600F074FC002084F8B80310BD05
:10187800022010BD30B405686B6A19B943EA024307
:10188800AB6217E0A86A03EB10400023013908E0B7
:1018980003F1400405EB8404646800EB1440013351
:1018A800DBB28B42F4DB40EA024001F1400405EB75
:1018B80084056860002030BC704700BF0368596227
:1018C800002070470C4B01E0013B10D00269002A50
:1018D800FADA036943F001030361074B01E0013BB6
:1018E80007D0026912F0010FF9D1002070470320D8
:1018F80070470320704700BF400D030084B010B547
:10190800044603A880E80E00089B012B18D1A36B9E
:1019180023F48033A363E36823F4840323F04003B0
:10192800E360E36823F44013E3600F9B012B03D1CA
:10193800E36843F48013E3602046FFF7C3FF09E040
:10194800E36843F04003E3602046FFF7BBFF4FF432
:101958008033A363069B012B07D1A36843F00603DA
:10196800A360A36843F02003A3600020BDE81040F3
:1019780004B07047836843F0010383600020704718
:10198800836823F0010383600020704708B5C368AB
:1019980023F0C043C360012904D1C36843F0005356
:1019A800C36004E019B9C36843F08043C3603220C0
:1019B80001F06CFB002008BD890141F020030361A0
:1019C800054B01E0013B05D0026912F0200FF9D167
:1019D8000020704703207047400D03001023036167
:1019E800054B01E0013B05D0026912F0100FF9D157
:1019F8000020704703207047400D0300D0F80038DE
:101A08001943C0F800180020704700BF84B02DE9C2
:101A1800F047044609A880E80E00DDF84CA0BAF1AA
:101A2800000F04D1A36B43F40013A36303E0A36B7B
:101A380043F40023A3630023C4F8003E04F50065C3
:101A4800D4F80038C4F800380E9B012B0BD10B9B3F
:101A580023B920460021FFF7D1FF08E020460121E5
:101A6800FFF7CCFF03E020460321FFF7C7FF20461E
:101A78001021FFF7A1FF2046FFF7B0FF00232B61DD
:101A88006B614FF0FF32AA61EB61099848B304F526
:101A98001063002294464FF09049FF261F68002FDC
:101AA800B4BFC3F80090C3F800C0C3F810C09E606C
:101AB800013220338242F1D304F530630022164606
:101AC8004FF090494FF0FF081F68002FB4BFC3F8CC
:101AD80000901E601E61C3F80880013220338242E4
:101AE800F2D12B6923F480732B610C9B012B0ED14F
:101AF800184B2B632B6B43F4803343F003032B63A6
:101B08002B6B0023A3616FF08043636109E000221F
:101B1800A2616FF0804262611BB9A36943F01003B0
:101B2800A361A2690C4B1343A3610F9B1BB1A3696B
:101B380043F00803A361BAF1010F05D1A36943F08B
:101B4800804343F00403A3610020BDE8F04704B0DC
:101B5800704700BF0001800000383C80D0F808388A
:101B680000F5006013F0060F11D0836803F0060338
:101B7800022B0ED0836803F00603062B0BD0836874
:101B880003F00603042B0CBF02200020704700203E
:101B98007047032070470320704700BF30B44B786C
:101BA800012B21D1D0F81C480A78012505FA02F248
:101BB80092B22243C0F81C280A78530103F5106337
:101BC8001C5814F4004F2ED11C5844F0805444F48F
:101BD80000448D68C5F30A052C43C97844EA81445A
:101BE80044EA82521A501EE0D0F81C480A784FF492
:101BF800803505FA02F22243C0F81C280B785B01F5
:101C080003F530631A5812F4004F0CD11A5842F0F9
:101C1800805242F400428C68C4F30A042243CC7810
:101C280042EA84421A50002030BC704770B505461D
:101C38000E464B78012B33D10B785B0103F510630B
:101C48001A5822F400421A500B785B0103F510630E
:101C58004FF000621A500B785B0103F510634FF0E8
:101C680080421A50097800EB411101F51061294BA7
:101C780001E0013B4AD08A6812F0804FF9D128462A
:101C88001021FFF799FED5F81C283378012101FAB5
:101C980003F39BB222EA0303C5F81C38002070BD89
:101CA8000B785B0103F53063C25822F40042C2503E
:101CB8000B785B0103F530634FF00062C2500B787C
:101CC8005B0103F530634FF08042C2500C7800EBA3
:101CD800441404F530640F4B01E0013B18D0A268AE
:101CE80012F0100FF9D1D5F8043843F48063C5F821
:101CF8000438D5F81C2833784FF4803101FA03F3FF
:101D080022EA0303C5F81C38002070BD032070BD0B
:101D1800032070BD400D030030B44B78012B6AD10D
:101D28004B69EBB90C7800EB4414D4F8103923F064
:101D3800FF5323F4C013C4F810390B7800EB431396
:101D4800D3F8104944F40024C3F810490C7800EB88
:101D58004414D4F81039DB0CDB04C4F810392CE037
:101D68000C7800EB4414D4F81039DB0CDB04C4F80D
:101D780010390C7800EB4414D4F8103923F0FF53D1
:101D880023F4C013C4F810398B684C699C4288BF8F
:101D98004B610B7800EB4313D3F8104944F400244B
:101DA800C3F810490B7800EB4313D3F810594C696A
:101DB800C4F312042C43C3F810490B785B0103F5F4
:101DC8001063C45844F00444C450012A06D10B7867
:101DD80000EB43100B69C0F8143948E04B69002B3D
:101DE80045D0D0F834280B78012101FA03F31343C6
:101DF800C0F834383BE00C7800EB4414D4F8103BBE
:101E0800DB0CDB04C4F8103B0C7800EB4414D4F86A
:101E1800103B23F0FF5323F4C013C4F8103B4B6965
:101E28000BB18B684B610B7800EB4313D3F8104B65
:101E380044F40024C3F8104B0B7800EB4313D3F899
:101E4800105B8C68C4F312042C43C3F8104B012AAE
:101E580005D10A7800EB4212CB68C2F8143B0B7824
:101E68005B0103F53063C25842F00442C2500020BF
:101E780030BC704730B49DF8084064B903339B0800
:101E880009D000F5805000EB023251F8045B156070
:101E980001349C42F9D1002030BC7047F0B583B0C2
:101EA8004B78012B40F0A3804B69EBB90C7800EB21
:101EB8004414D4F8103923F0FF5323F4C013C4F8A2
:101EC80010390B7800EB4313D3F8104944F400247D
:101ED800C3F810490C7800EB4414D4F81039DB0C23
:101EE800DB04C4F8103944E00C7800EB4414D4F84F
:101EF8001039DB0CDB04C4F810390C7800EB4414FF
:101F0800D4F8103923F0FF5323F4C013C4F8103960
:101F18000B7800EB4313D3F810698C684D6925449E
:101F2800013DB5FBF4F4694F07EAC4443443C3F8F0
:101F380010490B7800EB4313D3F810594C69C4F3DC
:101F480012042C43C3F81049CB78012B11D10B781C
:101F580000EB4313D3F8104924F0C044C3F81049E8
:101F68000B7800EB4313D3F8104944F00054C3F83E
:101F78001049012A06D10C7800EB44140B69C4F807
:101F880014390DE0CB78012B0DD04B69DBB1D0F8BB
:101F980034580C78012606FA04F42C43C0F8344867
:101FA800CB78012B0FD1D0F8083813F4807F0B7849
:101FB8004FEA431303F51063C4580CBF44F00054B0
:101FC80044F08054C4500B785B0103F51063C45887
:101FD80044F00444C450CB78012B74D1CD680C78FC
:101FE8008B8A009229462246FFF744FF6BE00C7863
:101FF80000EB4414D4F8103BDB0CDB04C4F8103BB2
:102008000C7800EB4414D4F8103B23F0FF5323F46E
:10201800C013C4F8103B4B69A3B90B7800EB43130A
:10202800D3F8105B8C68C4F312042C43C3F8104B2C
:102038000B7800EB4313D3F8104B44F40024C3F897
:10204800104B1DE08D680C7800EB4414D4F8106B2D
:102058002B44013BB3FBF5F39BB21C4D05EAC3458A
:102068003543C4F8105B0C7800EB4414D4F8106BBB
:102078008D6805FB03F3C3F312033343C4F8103B25
:10208800012A05D10A7800EB4212CB68C2F8143B4A
:10209800CB78012B0FD1D0F8083813F4807F0B7858
:1020A8004FEA431303F53063C2580CBF42F00052A5
:1020B80042F08052C2500B785B0103F53063C2587E
:1020C80042F00442C250002003B0F0BD0000F81FE7
:1020D80070B4033295080BD00A46002300F58056E9
:1020E800346842F8044B0133AB42F9D101EB850166
:1020F800084670BC704700BF4B78012B13D10B7892
:102108005B0103F51063C258002A03DBC25822F0B2
:102118008042C2500B785B0103F51063C25842F449
:102128000012C25012E00B785B0103F53063C2580D
:10213800002A03DBC25822F08042C2500B785B01B0
:1021480003F53063C25842F40012C25000207047B1
:102158004B78012B15D10B785B0103F51063C2583E
:1021680022F40012C250CB78023BDBB2012B1DD8FF
:102178000B785B0103F51063C25842F08052C250DD
:1021880014E00B785B0103F53063C25822F40012A7
:10219800C250CB78023BDBB2012B07D80B785B012E
:1021A80003F53063C25842F08052C2500020704795
:1021B800D0F8003823F4FE63C0F80038D0F80038AF
:1021C800090101F4FE610B43C0F800380020704794
:1021D80008B5D0F8043823F00203C0F80438032007
:1021E80000F054FF002008BD08B5D0F8043843F0CB
:1021F8000203C0F80438032000F048FF002008BD9F
:102208004369806918407047D0F8183800F50060B5
:10221800C0691840000C7047D0F81828D0F81C384E
:1022280002EA030080B2704700F5306303EB411106
:102238008B6800F5006040691840704710B4D0F80A
:102248001028D0F8344800EB4110D0F8083924FAA7
:1022580001F0C001C0B2104318405DF8044B70474C
:10226800406900F001007047D0F8003923F4FF639B
:1022780023F00703C0F8003900F500639A6802F0FC
:102288000602042A05D1D0F8002942F00302C0F85A
:1022980000295A6842F480725A600020704700BFD3
:1022A80010B40024C0F8104BD0F8104B44F40024AC
:1022B800C0F8104BD0F8104B44F01804C0F8104B7D
:1022C800D0F8104B44F0C044C0F8104B012905D198
:1022D800C0F8142B4FF08023C0F8003B00205DF8B5
:1022E800044B70472DE9F04182B00446002800F005
:1022F800B581036813F0010F5AD0A34B9B6803F014
:102308000C03042B0AD0A04B9B6803F00C03082B8A
:102318000DD19D4B5B6813F4800F08D09A4B1B6856
:1023280013F4003F44D06368002B41D198E16368FF
:10233800B3F5803F05D1944B1A6842F480321A6095
:1023480015E0B3F5A02F09D18F4B1A6842F480220B
:102358001A601A6842F480321A6008E08A4B1A68D8
:1023680022F480321A601A6822F480221A606368A4
:102378007BB100F085FE0646834D05E000F080FE47
:10238800801B642800F26E812B6813F4003FF5D09F
:102398000EE000F075FE06467B4D05E000F070FE8D
:1023A800801B642800F260812B6813F4003FF5D18C
:1023B800236813F0020F50D0734B9B6813F00C0F77
:1023C8000AD0714B9B6803F00C03082B16D16E4B97
:1023D8005B6813F4800F11D16B4B1B6813F0020F6D
:1023E80003D0E368012B40F04181674B196821F065
:1023F800F801226941EAC2021A602EE0E368D3B10B
:102408000122624B1A6000F03BFE06465E4D05E075
:1024180000F036FE801B022800F22A812B6813F098
:10242800020FF5D0584B196821F0F801226941EAEA
:10243800C2021A6011E00022544B1A6000F020FE1C
:102448000646514D05E000F01BFE801B022800F2F5
:1024580011812B6813F0020FF5D1236813F0080FD0
:1024680026D0636993B10122494B1A6000F008FE37
:102478000646454D05E000F003FE801B022800F2E9
:10248800FB806B6F13F0020FF5D011E00022404B78
:102498001A6000F0F5FD06463B4D05E000F0F0FD42
:1024A800801B022800F2EA806B6F13F0020FF5D14F
:1024B800236813F0040F7FD0334B1B6C13F0805F3D
:1024C8000DD100230193304B1A6C42F080521A64EC
:1024D8001B6C03F080530193019B012500E000254C
:1024E8002C4B1B6813F4807F13D12A4B1A6842F4D3
:1024F80080721A6000F0C4FD0746264E05E000F021
:10250800BFFDC01B022800F2BB80336813F4807F34
:10251800F5D0A368012B05D11B4B1A6F42F00102BD
:102528001A6714E0052B09D1174B1A6F42F0040201
:102538001A671A6F42F001021A6708E0124B1A6F05
:1025480022F001021A671A6F22F004021A67A368C0
:1025580093B100F095FD80460B4E41F2883706E0B6
:1025680000F08EFDC8EB0000B84200F28B80336F9C
:1025780013F0020FF4D019E000F082FD8046024EFD
:1025880041F288370EE000BF0038024000004742A1
:10259800800E47420070004000F072FDC8EB00005A
:1025A800B84271D8336F13F0020FF5D125B13D4B06
:1025B8001A6C22F080521A64A369002B66D0394A3B
:1025C800926802F00C02082A62D0022B33D1002252
:1025D800354B1A6000F054FD0646324D04E000F019
:1025E8004FFD801B022855D82B6813F0007FF6D1C9
:1025F800E269236A1A43636A42EA8312A36A5B08A0
:10260800013B42EA0343E26A43EA0262254B5A600D
:102618000122254B1A6000F033FD0546214C04E0E9
:1026280000F02EFD401B022836D8236813F0007FE7
:10263800F6D0002033E000221B4B1A6000F020FD8A
:102648000546184C04E000F01BFD401B022825D865
:10265800236813F0007FF6D1002020E001201EE05F
:1026680001201CE003201AE0032018E0012016E0F6
:10267800032014E0032012E0032010E003200EE002
:1026880003200CE003200AE0032008E0002006E015
:10269800012004E0032002E0032000E0032002B050
:1026A800BDE8F081003802406000474238B52F4B42
:1026B8009B6803F00C03042B55D0082B01D02C4841
:1026C80038BD2A4B5A6802F03F025B6813F4800F4A
:1026D80020D0264B5B68C3F38813002141EA53716D
:1026E800D8004D0145EAD0654401201A65EB010187
:1026F8008D0145EA90658401241A65EB0105E4180B
:1027080045F10005690241EAD45160020023FDF752
:1027180061FD1FE0154B5B68C3F38813002141EA94
:102728005371D8004D0145EAD0654401201A65EB84
:1027380001018D0145EA90658401241A65EB0105C4
:10274800E41845F10005A90241EA9451A0020023CA
:10275800FDF740FD054B5B68C3F3014301335B00A4
:10276800B0FBF3F038BD034838BD00BF0038024065
:102778000024F40000127A002DE9F0410D460446C9
:10278800002800F09680554B1B6803F00F038B421E
:1027980008D2CAB2514B1A701B6803F00F038B4260
:1027A80040F08A80236813F0020F17D013F0040F4B
:1027B80004D04B4B9A6842F4E0529A60236813F0B5
:1027C800080F04D0464B9A6842F460429A60444B22
:1027D800996821F0F001A2680A439A60236813F00F
:1027E800010F30D06368012B05D13D4A126812F4FD
:1027F800003F0ED163E09A1E012A05D8384A1268B4
:1028080012F0007F05D15DE0354A126812F0020F20
:102818005BD0334A916821F003010B43936000F0C9
:102828002FFC80462E4E41F2883705E000F028FC48
:10283800C8EB0000B8424BD8B26802F00C026368DB
:10284800B2EB830FF2D1254B1B6803F00F03AB42A9
:1028580007D9EAB2214B1A701B6803F00F03AB4289
:1028680039D1236813F0040F06D01D4B996821F461
:10287800E051E2680A439A60236813F0080F07D012
:10288800174B9A6822F46042216942EAC1029A60B1
:10289800FFF70CFF124B9B68C3F30313114AD35C79
:1028A800D840114A1060002000F09EFB0020BDE8CF
:1028B800F0810120BDE8F0810120BDE8F081012010
:1028C800BDE8F0810120BDE8F0810120BDE8F0817C
:1028D8000320BDE8F0810120BDE8F081003C024002
:1028E80000380240283E000878000020014B186894
:1028F800704700BF7800002030B408490C6924F400
:1029080040740C610C6944F440740C610C6944F027
:1029180001040C610260436030BC7047003C024017
:10292800074B1A6922F440721A611A6942F400725C
:102938001A611A6942F001021A610160704700BF0A
:10294800003C0240074B1A6922F440721A611A6966
:1029580042F480721A611A6942F001021A61018018
:10296800704700BF003C0240064B1A6922F44072CF
:102978001A611A691A611A6942F001021A61017032
:10298800704700BF003C0240204BDB6813F0100F7B
:1029980007D01F4BDA6942F01002DA6110221B4B94
:1029A800DA601A4BDB6813F0200F07D0184BDA698E
:1029B80042F00802DA612022144BDA60134BDB681C
:1029C80013F0400F07D0124BDA6942F00402DA61C3
:1029D80040220E4BDA600D4BDB6813F0800F07D0F6
:1029E8000B4BDA6942F00202DA618022074BDA60A7
:1029F800064BDB6813F0020F07D0054BDA6942F08B
:102A08002002DA610222014BDA607047003C024082
:102A1800EC0D0020074B1B69002B08DA054B064A12
:102A28005A6002F188325A601869C00F7047002056
:102A3800704700BF003C024023016745034B1A69F9
:102A480042F000421A610020704700BF003C02407B
:102A580070B504460022154BDA6100F011FB0646FA
:102A6800134D08E0B4F1FF3F05D0CCB100F008FBEE
:102A7800801BA04216D8EB6813F4803FF2D10C4BB0
:102A8800DB6813F0010F02D00122094BDA60084B12
:102A9800DB6813F0F20F07D0FFF776FF012070BD57
:102AA800032070BD032070BD002070BDEC0D002018
:102AB800003C0240F8B506460F4614461D461B4B1F
:102AC8001B7E012B30D00122184B1A764CF2503065
:102AD800FFF7BEFF034610BB26B93846E1B2FFF741
:102AE80043FF12E0012E04D13846A1B2FFF72AFFB6
:102AF8000BE0022E04D138462146FFF711FF04E00F
:102B0800384622462B46FFF7F7FE4CF25030FFF7C7
:102B18009FFF0346064A116921F001011161002156
:102B2800024A11761846F8BD0220F8BDEC0D0020C7
:102B3800003C0240074B1A6922F440721A611A6974
:102B480042F004021A611A6942EA002040F4803215
:102B58001A617047003C024010B441B1012908D005
:102B6800022914BF4FF440744FF4007403E00024AA
:102B780001E04FF480740C4B196921F4407119611C
:102B88001A6922431A611A6922F0F8021A611A694D
:102B980042EAC00040F0020018611A6942F480322B
:102BA8001A615DF8044B7047003C0240164B1B68E5
:102BB80013F4007F10D0144B1A6822F400721A60C4
:102BC8001A6842F400621A601A6822F400621A60F5
:102BD8001A6842F400721A600B4B1B6813F4806F7A
:102BE80010D0094B1A6822F480621A601A6842F4FD
:102BF80080521A601A6822F480521A601A6842F4E5
:102C080080621A60704700BF003C02402DE9F8431B
:102C180005468946244B1B7E012B42D00122224BBC
:102C28001A764CF25030FFF713FF0746002832D1CE
:102C38004FF0FF33C9F800302B68012B0ED1287CE8
:102C48006968FFF777FF4CF25030FFF701FF07463E
:102C5800164B1A6922F004021A611AE0AC684CF2A9
:102C68005038124E10E02046297CFFF775FF404689
:102C7800FFF7EEFE336923F0FA033361074610B11C
:102C8800C9F8004005E00134EA68AB681344A34280
:102C9800E9D8FFF78BFF0022034B1A763846BDE8C8
:102CA800F8830220BDE8F883EC0D0020003C0240C8
:102CB8002DE9F00F82B00023DFF8E8C1DFF8E8A1C2
:102CC800774DE6E01E464FF0010909FA03F90A6854
:102CD80002EA09024A4540F0DB804C68022C01D028
:102CE800122C14D1DF08083750F8274003F00708E2
:102CF8004FEA88084FF00F0B0BFA08FB24EA0B0B7E
:102D08000C6904FA08F444EA0B0440F82740076801
:102D18005C004FF0030808FA04F86FEA080808EAAC
:102D2800070B4F6807F00307A74047EA0B07076040
:102D38004F6807F1FF3BBBF1010F03D9112F01D0F9
:102D4800122F12D1876808EA070BCF68A74047EA15
:102D58000B078760476827EA09094F68C7F3001718
:102D680007FA06F646EA09064660C66808EA06084B
:102D78008E6806FA04F444EA0804C4604C6814F047
:102D8800805F00F0858000240194DCF8444044F41E
:102D98008044CCF84440DCF8444004F48044019476
:102DA800019C9C08A61C5AF8267003F00306B6007E
:102DB8004FF00F0808FA06F827EA0807DFF8EC8052
:102DC800404532D008F5806840452BD008F580682A
:102DD800404524D008F5806840451DD008F5806836
:102DE800404516D008F5806840450FD008F5806842
:102DF800404508D008F58068404514BF4FF00808E2
:102E08004FF0070813E04FF0060810E04FF00508F0
:102E18000DE04FF004080AE04FF0030807E04FF018
:102E2800020804E04FF0010801E04FF0000808FA3A
:102E380006F63E4302344AF82460D5F80080D443AD
:102E480004EA08064F6817F4803F18BF42EA0806EC
:102E58002E60D5F8048004EA08064F6817F4003F8E
:102E680018BF42EA08066E60D5F8088004EA08062A
:102E78004F6817F4801F18BF42EA0806AE60EE6874
:102E880034404F6817F4001F18BF42EA0604EC608C
:102E980001330F2B7FF616AF02B0BDE8F00F704775
:102EA800003C014000380240003801400000024068
:102EB80000690840003018BF012070470AB18161DD
:102EC80070470904816170470122014B1A607047FD
:102ED80020000E4200F00700064AD36823F4E0639E
:102EE8001B041B0C43EA002343F0BF6343F4003385
:102EF800D360704700ED00E030B4164BDB68C3F3D5
:102F08000223C3F10705042D28BF04251C1D062C28
:102F18008CBF033B0023012404FA05F5013D294039
:102F2800994004FA03F3013B1A400A43002806DAE1
:102F380000F00F001201D2B2074B1A5407E0120139
:102F4800D2B200F1604000F5614080F8002330BC47
:102F5800704700BF00ED00E014ED00E0420900F00A
:102F68001F00012303FA00F0014B43F822007047C9
:102F780000E100E0BFF34F8F054AD16801F4E0613A
:102F8800044B0B43D360BFF34F8F00BFFDE700BF77
:102F980000ED00E00400FA050138B0F1807F0AD2A4
:102FA800064B5860F021064A82F8231000209860EA
:102FB80007221A6070470120704700BF10E000E048
:102FC80000ED00E00428044B1A680CBF42F004022C
:102FD80022F004021A60704710E000E0704700BF5A
:102FE80008B5FFF7FBFF08BD10B504460E4B1B786C
:102FF8004FF47A72B2FBF3F30C4A1068B0FBF3F0AB
:10300800FFF7CAFF58B90F2C0BD84FF0FF302146F5
:103018000022FFF771FF064B1C60002010BD012045
:1030280010BD012010BD00BF7400002078000020F2
:103038007000002008B50B4B1A6842F400721A6041
:103048001A6842F480621A601A6842F480721A6040
:103058000320FFF73FFF0020FFF7C6FFFDF74CFFF7
:10306800002008BD003C0240034B1A680349097858
:103078000A441A60704700BF0C0E0020740000203C
:10308800014B1868704700BF0C0E002038B5044685
:10309800FFF7F6FF0546B4F1FF3F02D0044B1B785B
:1030A8001C44FFF7EDFF401B8442FAD838BD00BF2F
:1030B800740000200F4AD2F8883043F47003C2F835
:1030C80088300D4B196841F00101196000209860A3
:1030D800196821F0847121F4803119600749596019
:1030E800196821F480211960D8604FF0006393605B
:1030F800704700BF00ED00E00038024010300024A7
:1031080008B5034688B1D0F8140210B10020C3F8FE
:10311800140209B1C3F81012012183F8FC111A70C6
:103128001846FDF7ADFD002008BD022008BD00BF10
:1031380019B1C0F81412002070470220704700BF70
:1031480008B5FDF7D3FD002008BD00BF08B5D0F8CD
:10315800143233B11B68984700280CBF00200220A6
:1031680008BD022008BD00BF08B5D0F814325B685E
:103178009847002008BD00BF38B5044600F5027521
:10318800284600F015F90123C4F8F431B4F80E32DA
:10319800C4F8F83194F8081201F01F03012B08D085
:1031A80013B1022B0AD00EE02046294600F08AFA15
:1031B8000EE02046294600F0A9FA09E020462946F3
:1031C80000F0C0FA04E0204601F08001FDF7BAFDE6
:1031D800002038BD38B5044609BBD0F8F431032BBC
:1031E80026D1D0F80C11D0F8103199420AD9C91A51
:1031F800C0F80C118B4228BF0B4611469AB200F05A
:103208006DFB15E0D0F814321B6923B190F8FC214E
:10321800032A00D19847204600F06AFB08E0D0F85E
:1032280014329B6923B190F8FC21032A00D19847F6
:10323800002038BD38B50446002941D1D0F8F43112
:10324800022B35D1C169036A99420CD9CB1AC361E3
:1032580011469AB200F028FB204600210A460B4688
:10326800FDF7B8FD24E08269B2FBF3F103FB1121FD
:1032780089B993420FD8D0F8F8319A420BD20A464E
:1032880000F012FB0023C4F8F831204619461A460C
:10329800FDF7A0FD0CE0D4F81432DB682BB194F8EC
:1032A800FC21032A01D120469847204600F02CFB38
:1032B80094F80032012B0CD1002384F8003208E086
:1032C800D0F814325B6923B190F8FC21032A00D1AD
:1032D8009847002038BD00BF38B5044600210A468B
:1032E8004023FDF711FD4025C4F8105120468021E8
:1032F80000222B46FDF708FD2562012384F8FC31E6
:10330800D4F818322BB1D4F814325B6820462179EE
:103318009847002038BD00BF01740020704700BFE7
:1033280090F8FC3180F8FD31042380F8FC3100204E
:10333800704700BF90F8FD3180F8FC3100207047DD
:1033480008B590F8FC31032B04D1D0F81432DB69AE
:1033580003B19847002008BD00207047002070473F
:103368000020704708B5012280F8FC21D0F814220B
:10337800526801799047002008BD00BF034600202D
:1033880002E00130C0B201331A78002AF9D170473F
:1033980010B504464B88012B08D1C0F80432D0F888
:1033A80014329B689847204600F0A2FA10BD00BF6F
:1033B8000B7803704B7843708B78CA7803EB022341
:1033C80043800B794A7903EB022383808B79CA798E
:1033D80003EB0223C380704710B504468021FDF734
:1033E800B1FC20460021FDF7ADFC10BD30B583B01F
:1033F80004460D464A88130A013B062B00F28580D5
:10340800DFE803F0040D238383657300D0F81032DE
:103418001B68007C0DF106019847014679E0037CA2
:103428004BB9D0F814329B6A0DF106009847014653
:10343800022343706DE0D0F81432DB6A0DF1060008
:10344800984701460223437063E0D2B2052A3AD86E
:10345800DFE802F0030C151E2730D0F810325B6845
:10346800007C0DF106019847014652E0D0F8103271
:103478009B68007C0DF106019847014649E0D0F8A9
:103488001032DB68007C0DF106019847014640E0E8
:10349800D0F810321B69007C0DF1060198470146EF
:1034A80037E0D0F810325B69007C0DF106019847CF
:1034B80001462EE0D0F810329B69007C0DF1060120
:1034C8009847014625E02946FFF786FF2EE0037C52
:1034D8003BB9D0F814325B6B0DF1060098470146F2
:1034E80017E02946FFF778FF20E0037C4BB9D0F8B6
:1034F80014321B6B0DF106009847014607234370F1
:1035080007E02946FFF768FF10E02946FFF764FF48
:103518000CE0BDF806304BB1EA883AB1934238BFA7
:103528001A46ADF80620204600F0B0F903B030BDC9
:1035380038B504468B88E3B9CB88D3B98D7805F0C4
:103548007F0590F8FC31032B02D1FFF745FF38BD0A
:1035580080F8FE512946FDF721FC204600F0C8F905
:103568001DB1022384F8FC3138BD012384F8FC31F5
:1035780038BD2046FFF730FF38BD00BF38B50446D8
:103588000D468B78264A1370012B02D9FFF724FFCA
:1035980038BD90F8FC21022A02D0032A16D03BE05D
:1035A8008BB14360032280F8FC211946FFF7CEFD5A
:1035B800022804D120462946FFF70EFF38BD2046D1
:1035C80000F096F938BD00F093F938BD53B90222DE
:1035D80080F8FC2143601946FFF7C6FD204600F03D
:1035E80087F938BD41688B4213D0C9B2FFF7BCFDDB
:1035F8000B4B197861602046FFF7A8FD022804D11B
:1036080020462946FFF7E8FE38BD204600F070F94D
:1036180038BD00F06DF938BDFFF7DEFE38BD00BFDC
:103628007D05002008B50346CA88012A02D0FFF7A5
:10363800D3FE08BD90F8FC21022A02D0032A08D044
:103648000CE00146002241F8082F012200F01EF983
:1036580008BD191D012200F019F908BDFFF7BCFECD
:1036680008BD00BF08B5034690F8FC21023A012ABC
:103678000DD80122C260D0F804220AB10322C26028
:10368800184603F10C01022200F000F908BDFFF70B
:10369800A3FE08BD10B5044690F8FC31023B012B8F
:1036A8000DD84B88012B0CD10023C0F80432D0F878
:1036B80014329B689847204600F01AF910BDFFF7AE
:1036C8008BFE10BD08B54B78092B1BD8DFE803F03B
:1036D80011171A141A08051A0E0BFFF787FE13E0C4
:1036E800FFF726FF10E0FFF749FF0DE0FFF79AFF0D
:1036F8000AE0FFF7B7FF07E0FFF74AFE04E0FFF72D
:10370800C9FF01E0FFF768FE002008BD38B5044690
:103718000D4690F8FC31032B0FD10B79012B09D8FA
:10372800D0F814329B689847EB8843B9204600F0DC
:10373800DFF804E0FFF750FE01E0FFF74DFE002040
:1037480038BD00BF38B505460C468A88D1B2237803
:1037580003F06003202B05D1D0F814329B68214672
:10376800984775E06378012B26D0002B48D0032BAF
:103778006ED190F8FC31022B02D0032B07D017E052
:10378800002965D0802963D0FDF7DCFA60E0638802
:1037980023B919B1802901D0FDF7D4FAD5F814322C
:1037A8009B68284621469847284600F0A1F84FE034
:1037B8002146FFF711FE4BE090F8FC31022B02D0B6
:1037C800032B07D018E0002942D0802940D0FDF70C
:1037D800B9FA3DE06388002B3AD111F07F0F07D08A
:1037E800FDF7BEFAD5F814329B682846214698475B
:1037F800284600F07DF82BE02146FFF7EDFD27E095
:1038080090F8FC31022B02D0032B06D01DE011F0FA
:103818007F0F1DD0FDF796FA1AE012F0800F01F025
:103828007F0400EB041414BF143404F58274FDF70C
:10383800A5FA10B10123236001E000232360284684
:103848002146022200F022F802E02146FFF7C4FDDB
:10385800002038BD70B50D4616460446A8B1FFF7DE
:103868008DFD013043009BB233802B7003236B70B6
:103878000222002106E0501CC0B20134AB54421CA5
:10388800D2B229542378002BF5D170BD38B50D4636
:1038980013460222C0F8F4218361C36100212A463D
:1038A800FDF78AFA002038BD10B50C4613460021F2
:1038B8002246FDF781FA002010BD00BF38B50D463D
:1038C80013460322C0F8F421C0F80831C0F80C31BF
:1038D80000212A46FDF77EFA002038BD10B50C46B7
:1038E800134600212246FDF775FA002010BD00BFDF
:1038F80008B50423C0F8F43100210A460B46FDF749
:103908005BFA002008BD00BF08B50523C0F8F431F4
:1039180000210A460B46FDF75DFA002008BD00BFEE
:10392800292303800048704788000020D0F8183207
:10393800002083F85000704710B5D0F81842E36CA7
:10394800012B07D1D0F81C32DB68207861789847C2
:103958000023E364002010BD0A2303800048704759
:10396800EC00002038B50546D0F81842D0F81C32D3
:10397800DB68207861789847284601212246402351
:10398800FDF728FA002038BD10B50B46D0F81812FC
:103998001C7814F060042DD0202C53D15A78023AA8
:1039A800092A22D8DFE802F0140921212121211A4D
:1039B8000F059B780B64002445E040310122FFF796
:1039C80065FF00243FE05B881B0A4B6400243AE053
:1039D80044310122FFF75AFF002434E00122CA646F
:1039E8009A79FFF76BFF00242DE01946FFF7F4FCE6
:1039F800022428E05A780A2A1CD00B2A1FD0062A4B
:103A080021D15A88120A222A07D1DA88142A28BF13
:103A18001422D0F81C32196809E0212A05D1DA8865
:103A2800092A28BF0922094901E000210A46FFF7AF
:103A38002DFF08E048310122FFF728FF03E09B78BB
:103A48008B6400E00024204610BD00BF7C000020ED
:103A580010B504468121FDF767F920460121FDF7DD
:103A680063F9D4F8183253B1D4F81C329B689847DC
:103A7800D4F8180200F0A6F80023C4F81832002081
:103A880010BD00BF70B50546812103220823FDF74C
:103A98003BF92846012103224023FDF735F954203C
:103AA80000F088F80446C5F8180270B1002680F8BE
:103AB8005060D5F81C325B68984728460121224699
:103AC8004023FDF787F9304670BD012070BD00BF67
:103AD80070B50E461346D0F8185290F8FC41032CE6
:103AE80009D195F8502032B9012285F8502081215A
:103AF8003246FDF761F9002070BD00BF19B1C0F86A
:103B08001C12002070470220704700BFDFF83CD02D
:103B1800002100F004B80E4B5B58435004310D48A7
:103B28000D4B42189A42FFF4F6AF0C4A00F003B866
:103B3800002342F8043B0A4B9A42FFF4F9AFFFF71F
:103B4800B9FA00F011F8FCF72DFF704700000220C9
:103B58004C3E0008000000205C0100205C010020B1
:103B6800140E0020FFF7FEBF70B50E4B0E4DED1A78
:103B7800AD1000241E46AC4204D056F824209047CD
:103B88000134F8E700F0F8F8084D094BED1AAD10CC
:103B980000241E46AC4204D056F824209047013435
:103BA800F8E770BD443E0008443E0008483E00085F
:103BB800443E0008024B0146186800F05FB800BF99
:103BC80058010020024B0146186800F013B800BFE6
:103BD8005801002030B50023934208D0C55C01335A
:103BE800CC1814F8014CA542F6D0281B30BD002093
:103BF80030BD000030B500293CD051F8042C0B1F13
:103C08001D49002AB8BF9B180A680C4612B95A60A9
:103C18000B6030BD93420DD219685818904203D1F9
:103C28005A581144426819605A60236030BD99425D
:103C380003D80A4651680029F9D1146815199D421C
:103C48000AD11B682344D0188842136012D108682F
:103C5800034413604B680CE002D90C23036030BDA9
:103C680018681C188C4203D10C68496820441860F5
:103C78005960536030BD00BF8405002070B5CD1C6D
:103C880025F0030508350C2D38BF0C25002D0646F8
:103C98003FDB8D423DD3214B1C6818462146A1B11C
:103CA8000B685B1B0ED40B2B03D90B60CC18CD50C3
:103CB8001FE08C4202D1626802601AE04B686360C0
:103CC8000C4616E00C464968E9E7154C23681BB911
:103CD800304600F027F820602946304600F022F8E8
:103CE800431C014615D0C41C24F0030484420AD1A5
:103CF800256004F10B00231D20F00700C31A0BD028
:103D08005A42E25070BD3046611A00F00BF801309B
:103D1800EED10C233360002070BD00BF8405002065
:103D28008005002038B5064C002305460846236068
:103D380000F008F8431C02D1236803B12B6038BD9A
:103D4800100E0020094A136863B118446946884276
:103D580002D8106018467047054B0C221A604FF0C5
:103D6800FF307047034B1360EFE700BF8805002062
:103D7800100E0020180E0020F8B500BFF8BC08BCD3
:103D88009E467047F8B500BFF8BC08BC9E46704711
:103D98005372632F6D61696E2E6300005372632F37
:103DA800757362645F636F6E662E630053544D33A0
:103DB800322048494420626F6F746C6F6164657289
:103DC800000000007777772E736572617369646904
:103DD800732E6772000000003132333435363738BD
:103DE8003930000053544D33322048494420626F23
:103DF8006F746C6F6164657220436F6E66696700EB
:103E080053544D33322048494420626F6F746C6FAD
:103E18006164657220496E7465726661636500004D
:103E28000000000000000000010203040607080962
:043E38004300000043
:083E3C0030C4FF7F010000000B
:043E4400AD010008C4
:043E480089010008E4
:103E4C000100000042544C44434D440242544C4443
:103E5C00434D440010000000F90D0008050E000849
:103E6C00290E0008110E0008450E00085D0E000812
:103E7C00750E000804030904120100020000004042
:103E8C000912BABE00020102030100005C0000200E
:103E9C008D0E0008910E0008950E00080600FF0913
:103EAC0000A101750895409103750895088103C020
:103EBC0010000000010000000024F4000921110191
:103ECC00000122140000000009022900010100C0B9
:103EDC003209040000020300000009211101000155
:103EEC00221400070581030800200705010140008A
:103EFC00200000008D3A0008593A0008913900085A
:103F0C000000000041390008353900086D390008FF
:103F1C00000000000000000000000000293900082B
:103F2C002939000829390008613900080A060002FD
:103F3C000000004001000000000000000000000034
:103F4C000000000000000000000000000000000065
:103F5C000000000000000000383E000800000000D7
:103F6C000000000000000000000000000000000045
:103F7C000000000000000000000000000000000035
:103F8C000000000000000000000000000000000025
:0C3F9C000000000000000000F800002001
:0400000508003B159F
:00000001FF
