:020000040800F2
:10000000881300209D010008031900081F1800082C
:1000100001190008C5020008752F00080000000043
:10002000000000000000000000000000BB190008F4
:10003000FD02000800000000B9190008BD19000801
:10004000B7010008B7010008B7010008B7010008B0
:10005000B7010008B7010008B7010008B7010008A0
:10006000B7010008B7010008B7010008B701000890
:10007000B7010008B7010008B7010008B701000880
:10008000B7010008B7010008B7010008B701000870
:10009000B7010008B7010008B7010008B701000860
:1000A000B7010008B7010008B7010008B701000850
:1000B000B7010008B7010008B7010008B701000840
:1000C000B7010008B7010008B7010008B701000830
:1000D000B7010008B7010008B7010008B701000820
:1000E000B7010008B7010008B7010008B701000810
:1000F000B7010008B7010008B7010008B701000800
:10010000B7010008B7010008B7010008B7010008EF
:10011000B7010008B7010008B7010008B7010008DF
:10012000B7010008B7010008B7010008B7010008CF
:10013000B7010008B7010008B7010008B7010008BF
:10014000B7010008B7010008B70100082519000829
:10015000B7010008B7010008B7010008B70100089F
:10016000B7010008B7010008B7010008B70100088F
:10017000B7010008B7010008B7010008000000003F
:10018000B7010008B7010008DFF80CD000F088F8CC
:1001900000480047E92F00088813002006488047E0
:1001A00006480047FEE7FEE7FEE7FEE7FEE7FEE75C
:1001B000FEE7FEE7FEE7FEE76D1A0008890100088A
:1001C0002DE9F05F0546002092469B46884606468C
:1001D000814640241BE0284641464746224600F01F
:1001E0004EF853465A46C01A914110D3114618464C
:1001F000224600F035F82D1A67EB01084F462246DB
:100200000120002100F02CF817EB00094E41201EC0
:10021000A4F10104DFDC484631462A464346BDE8E6
:10022000F09F40EA01039B0703D009E008C9121FB1
:1002300008C0042AFAD203E011F8013B00F8013BA0
:10024000521EF9D2704730B504460020034600E044
:100250005B1C934203D2E05CCD5C401BF8D030BD08
:10026000202A04DB203A00FA02F100207047914076
:10027000C2F1200320FA03F3194390407047202A6B
:1002800004DB203A21FA02F00021704721FA02F340
:10029000D040C2F120029140084319467047000047
:1002A000064C074D06E0E06840F0010394E80700C3
:1002B00098471034AC42F6D3FFF76AFF0C320008BF
:1002C0002C320008FEE70020704700207047000035
:1002D0000748084AD0F8181200200B5C1354401C41
:1002E000C0B24028F9D304490120087000207047AB
:1002F000000700202409002034000020704700007F
:10030000002229B101291AD002291BD04FF44072D2
:100310000E490B6823F440730B600B6813430B60AA
:100320000A6822F0F8020A600A68022303EBC000A0
:1003300002430A60086840F48030086070474FF458
:100340008072E5E74FF40072E2E70000103C0240E3
:100350001348016889050FD5016821F40071016017
:10036000016841F400610160016821F400610160ED
:10037000016841F400710160016849050FD5016809
:1003800021F480610160016841F4805101600168DD
:1003900021F480510160016841F48061016070477F
:1003A000003C024008490A6822F440720A600A6868
:1003B00042F004020A600A684FF4803343EA0020E6
:1003C00002430A6070470000103C0240064A13686E
:1003D00023F44073136013681360136843F0010340
:1003E0001360017070470000103C0240084910B5CE
:1003F0000C6824F440740C600C6844F440740C6085
:100400000C6844F001040C600260436010BD000001
:10041000103C0240074A136823F4407313601368CA
:1004200043F480731360136843F001031360018089
:1004300070470000103C0240074A136823F44073E1
:100440001360136843F400731360136843F00103EF
:100450001360016070470000103C024017490868B3
:10046000C206174805D5C26942F01002C2611022C7
:100470000A600A68920605D5C26942F00802C261A4
:1004800020220A600A68520605D5C26942F00402B9
:10049000C26140220A600A68120605D5C26942F0AC
:1004A0000202C26180220A600A68920705D5C26909
:1004B00042F02002C2610220086070470C3C0240FA
:1004C000640D002070B5114904460020C86100F099
:1004D000BFF906460E4D09E0601C07D024B100F0BC
:1004E000B7F9801BA04201D9032070BD2868C00362
:1004F000F2D42868C00701D001202860286810F0D5
:10050000F200F2D0FFF7AAFF012070BD640D0020B9
:100510000C3C024070B5044600F09AF90546601C98
:1005200002D004480078044400F092F9401BA04235
:10053000FAD370BD780000202DE9F0470446224828
:100540000F46017E01290AD00121804601764CF236
:1005500050394846FFF7B6FF020003D02FE00220D3
:10056000BDE8F0874FF0FF3038602068174D012854
:1005700001D0A6681CE0207C6168FFF713FF4846A5
:10058000FFF7A0FF0246286820F00400286014E06E
:10059000217C3046FFF7B4FE4846FFF793FF020088
:1005A000286820F0FA00286001D03E6005E0761C43
:1005B000D4E902100844B042EAD8FFF7C9FE00218E
:1005C00088F818101046CBE7640D0020103C02405C
:1005D0000348016841F000410160002070470000BD
:1005E000103C02402DE9F0471B4E05461446307E74
:1005F0001F468946012808D0012030764CF2503839
:100600004046FFF75FFF18B114E00220BDE8F08715
:100610009DB1012D16D0022D19D022463B464846E9
:10062000FFF7E4FE4046FFF74DFF0C490A6822F051
:1006300001020A6000213176E8E7E1B24846FFF79F
:10064000C5FEEFE7A1B24846FFF7E4FEEAE7214620
:100650004846FFF7F1FEE5E7640D0020103C02403C
:10066000074900200A68002A09DA054A054B0C3AB6
:100670001360054B13600968002900DA01207047F8
:10068000103C024023016745AB89EFCD2DE9F84FBF
:10069000DFF87CB100224FF001084FF0030A4FF061
:1006A0000F090BF1040E00BF0B6808FA02F4234097
:1006B000A3426ED14D68022D01D0122D0ED1D50866
:1006C00000EB850CDCF820505607F70E09FA07F608
:1006D000B5430E69BE402E43CCF820600668550035
:1006E0000F790AFA05FC07F0030726EA0C06AF406B
:1006F000374307604E68012E05D0022E03D0112E1D
:1007000001D0122E0ED18668CF6826EA0C06AF40C3
:10071000374387604668A6430C79C4F300149440BD
:1007200034434460C6688C6826EA0C06AC40344307
:10073000C4604C68E40065D5364C256845F48045B6
:100740002560246822F0030504F480440094324CB0
:100750002E19D6F8084895072F0F09FA07F5AC436C
:100760002E4DA84201D1002524E02D4DA84201D1F3
:1007700001251FE02B4DA84201D102251AE02A4D88
:10078000A84201D1032515E0284DA84202D1042535
:1007900010E037E0264DA84201D105250AE0254D9D
:1007A000A84201D1062505E0234DA84201D1072525
:1007B00000E00825BD402543C6F80858DBF8004096
:1007C0005D464E689C43F60300D51C432C60DEF862
:1007D000004075464E689C43B60300D51C432C6010
:1007E0000B4D08352C684E689C43F60200D51C431F
:1007F0002C60074D0C352C684E689C43B60200D522
:100800001C432C60521C102AFFF44EAFBDE8F88F39
:10081000003C0140443802400030014000000240EA
:100820000004024000080240000C02400010024098
:100830000014024000180240001C024000690840F9
:1008400000D0012070470AB1816170470904FBE7BD
:1008500001488068704700007800002002488168E5
:100860000278114481607047780000200B4810B571
:10087000016841F400710160016841F48061016028
:10088000016841F480710160032000F081F80020CC
:1008900000F006F800F024F8002010BD003C0240F3
:1008A00070B50D4D04464FF47A712878B1FBF0F025
:1008B0000A490968B1FBF0F000F099FF48B9102C23
:1008C00007D200222146501E00F042F800206C6042
:1008D00070BD012070BD00007800002004010020E0
:1008E00010B5032000F054F8002211466FF00B0001
:1008F00000F02EF8002211466FF00A0000F028F8F0
:10090000002211466FF0090000F022F80022114683
:10091000501F00F01DF800221146101F00F018F8BB
:1009200000221146901E00F013F80022BDE810408E
:100930001146501E00F00CB800F01F02012191403A
:100940004009800000F1E020C0F80011704700006D
:10095000F0B40E4B1B680C46C3F30223C3F107052A
:10096000042D00D90425191D072901D2002300E018
:10097000DB1E012606FA05F1491E214099409E40E2
:10098000761E16403143F0BC00F0BCBF0CED00E019
:10099000064900F0070208684FF6FF03184040EAD6
:1009A0000220034A10430860704700000CED00E08D
:1009B0000000FA05BFF34F8F05480168054A01F4AE
:1009C000E06111430160BFF34F8F00BFFDE70000FE
:1009D0000CED00E00400FA05006841620020704759
:1009E000F0B500680023446A31B1856A4FF482761D
:1009F00004EB15444D1E0AE044EA024181620FE017
:100A000006EB8307C7595B1C04EB1744DBB2AB4210
:100A1000F6DB4FF4807303EB810144EA024242505B
:100A20000020F0BDD0F8EC0301F056BBC1EBC102D1
:100A300000EB8202D0F8EC03526C01F0C3BAC1EBB8
:100A4000C10200EB8202D0F8EC03D2F8042201F0DC
:100A50000EBBD0F8EC0301F041BB10B504460A46CA
:100A60000B0601F07F00C0EBC00104EB810101D552
:100A7000383101E001F5FC710870D009487094F834
:100A8000B803012809D0012084F8B803206801F0D8
:100A900063FE002084F8B80310BD022010BD70B5BD
:100AA0000A460446090602F07F0005D5C0EBC001E6
:100AB00004EB8101383105E0C2EBC20104EB810196
:100AC00001F5FC7100258D700870D009487094F80C
:100AD000B803012809D0012084F8B803206802F087
:100AE0001CF884F8B853002070BD022070BD70B5AA
:100AF00004460D460E0601F07F00C0EBC00104EB7A
:100B0000810101D5383101E001F5FC71ED09087072
:100B10004D708A60CB7000D0C8800025022B00D1B8
:100B20000D7194F8B803012809D0012084F8B803A6
:100B3000206801F065FD284684F8B85370BD022096
:100B400070BD70B50C4601F07F05C5EBC50100EB2B
:100B50008101C1F80C32C1F804220023C1F810321F
:100B600081F8F93181F8F851036901F5FC71012B25
:100B700000D10A616206027C006803D002F02EF800
:100B8000002070BD01F00AFFFAE770B50D4604467B
:100B9000090605F07F0005D5C0EBC00104EB81011B
:100BA000383105E0C5EBC50104EB810101F5FC71AD
:100BB00001228A700870E809487094F8B803012887
:100BC00007D084F8B823206801F0D9FF680602D066
:100BD00007E0022070BD217C04F56F72206801F0EF
:100BE0007DFF002084F8B80370BD70B50C4601F09D
:100BF0007F05C5EBC50100EB8101CB644A6400238E
:100C00000B65012381F8393001F8385F0369012B46
:100C100000D10A616206027C006803D001F0DEFFA9
:100C2000002070BD01F0BAFEFAE700002DE9F84F90
:100C3000044600680026054602F024F9002875D114
:100C4000206802F048F9002870D0206802F043F9CB
:100C5000800704D52068416901F0020141612068E4
:100C600002F039F9010304F56F704FF0010B4FF0FA
:100C7000000A00904DD5206802F00FF9074646E0C3
:100C8000F80742D0F1B2206802F01DF98046C00793
:100C900028D005EB4612C2F808BB2069012811D103
:100CA000C6EBC60004EB8001D2F8102BD1F800028D
:100CB000C2F31202821AC1F81022D1F804221044A1
:100CC000C1F80402F1B22046FFF7B9FE20690128FD
:100CD00008D13EB9D4F80C0220B920680121009A4D
:100CE00001F0FCFE5FEA087007D5204600F0DCFA50
:100CF00005EB46110820C1F8080B5FEAC86004D56F
:100D000005EB46111020C1F8080B7F08761C002F58
:100D1000B6D1206802F0DFF840034FF040095ED5FD
:100D2000206802F0B3F80746002656E0D2E1F80743
:100D300051D0F1B2206802F0B7F88046C00724D045
:100D4000D5F834280BFA06F08243C5F8342805EBB1
:100D50004610C0F808B92069012807D1C6EBC600C3
:100D600004EB8000D0E9101211444164F1B2204636
:100D7000FFF75CFE2069012807D136B9E06C20B985
:100D800020680121009A01F0A9FE5FEA087004D5ED
:100D900005EB46110820C1F808095FEAC86004D5D0
:100DA00005EB46111020C1F808095FEA486003D539
:100DB00005EB4611C1F808995FEA887004D505EB88
:100DC00046110220C1F808095FEA086003D53146E0
:100DD000204600F0ADFD7F08761C002FA7D12068CB
:100DE00002F079F800280DDAD5F8040820F00100A7
:100DF000C5F80408204600F03DFA2168486900F073
:100E000000404861206802F066F800050BD5D5F86F
:100E10000808C00702D0204600F062FA2068416945
:100E200001F400614161206802F055F8C0044CD51E
:100E3000D5F8040820F00100C5F804081021206846
:100E400001F0F0FF0020FF2107E000BF05EB40129A
:100E5000C2F80819C2F8081B401C62688242F5D823
:100E60004FF0FF30C5F81808D5F81C0840F0011005
:100E7000C5F81C08206B60B1D5F8840840F00B0061
:100E8000C5F88408D5F8440840F00B00C5F84408BC
:100E90000BE0D5F8140840F00B00C5F81408D5F89D
:100EA000100840F00B00C5F81008D5F8000820F431
:100EB000FE60C5F80008217C2068009A01F00EFE53
:100EC0002168486900F480504861206802F003F806
:100ED00080047DD5206801F0D3FB2068C16821F42F
:100EE0007051C160206801F0AFFF78B10320C4F8F1
:100EF0001490E06000F0AAFA7749784A01449142E0
:100F00000AD22068C16841F4705158E04FF4007073
:100F1000C4F80CA0606136E07149724A0144914204
:100F200004D22068C16841F4605148E06E496F4ABC
:100F30000144914204D22068C16841F450513EE01E
:100F40006B496C4A0144914204D22068C16841F463
:100F5000405134E06849694A0144914204D2206812
:100F6000C16841F430512AE06549664A0144914222
:100F700004D22068C16841F4205120E0624942183F
:100F800062498A4204D22068C16841F4105116E0D7
:100F90005F49604A0144914204D22068C16841F42B
:100FA00000510CE05C4908445C4988422068C168F3
:100FB00003D241F4E05102E00AE041F4C051C160C3
:100FC000204600F047F92068416901F40051416171
:100FD000206801F080FFC00636D52168886920F0BE
:100FE00010008861D5F8208008F00F00C0EBC00029
:100FF00004EB8007C8F3434007F5FC77022802D0D2
:10100000062812D01BE047F6F07018EA000F16D041
:10101000C8F30A1290462846F96801F060FFF868A4
:101020004044F860B869404408E008222846009926
:1010300001F055FFB969C8F30A100844B861206887
:10104000816941F010018161206801F044FF0007CF
:1010500007D5204600F012F92068416901F0080127
:101060004161206801F037FFC00208D5F1B2204687
:1010700000F056F82068416901F480114161206850
:1010800001F029FF800208D5F1B2204600F04CF8AB
:101090002068416901F400114161206801F01BFFE3
:1010A000400007D52046FFF7BDFC2068416901F0EC
:1010B00080414161206801F00EFF40070AD5206899
:1010C0004568680702D52046FFF7C3FC20684168E1
:1010D00029434160BDE8F88F405327FF00350C00DD
:1010E000401E1BFF40420F0000DC0BFF804F120030
:1010F000808CF9FE20D6130060B6E5FE60E3160092
:1011000000D3CEFE40771B00C05BB3FEC091210030
:1011100000CA91FE20753800E05459FEE09C410061
:10112000D0F8EC0301F034B8D0F8EC0301F032B899
:10113000F0B58BB004004FF0000556D0032084F8C2
:10114000B903204600F054F8206801F021FC04F1B6
:10115000100128220F466846FFF763F894E80F0055
:1011600001F0A8FA0021206801F0C9FE0126002044
:10117000C5EBC50104EB810181F8396001F8385FE6
:10118000CD80C8708860C8606D1C48610F2DEFD39A
:1011900000214FF4827300BFC1EBC10204EB820255
:1011A00003EB810582F8F90182F8F811D18782F802
:1011B000FB01C2F80002C2F80402C2F80C02226865
:1011C0005051491C0F29E7D3282239466846FFF7BA
:1011D00028F894E80F0001F03BFB84F8B96320681D
:1011E00001F02AFB00200BB0F0BD0120FBE700005E
:1011F00000B5006887B0B0F1A04F25D14FF4C050C2
:1012000000900220019000200290032003900A2009
:10121000049069460D48FFF739FA0D48016841F01E
:10122000800101600A481030016841F4804101608A
:101230000068002200F48040059011464320FFF72B
:1012400087FB4320FFF778FB07B000BD000002409A
:101250003438024010B50446C068012100B90021AD
:10126000D4F8EC0300F0ECFFD4F8EC03BDE8104038
:1012700000F0B5BFD0F8EC0300F0D0BFD0F8EC031D
:1012800000F0D2BF10B5044690F8B803012809D089
:10129000012084F8B803206801F047FE002084F89C
:1012A000B80310BD022010BDD0F8EC2300F56F711B
:1012B000104600F0D8BF10B5044690F8B8030128D6
:1012C0000CD0012084F8B803206801F0A9FA206846
:1012D00001F092FD002084F8B80310BD022010BD7B
:1012E00010B50446D0F8EC0301F00AF82068D0F8F5
:1012F000001E41F00101C0F8001E206A002804D041
:101300000248016841F00601016010BD10ED00E0E7
:10131000014901200862704700000E422DE9F047A4
:101320000E46050065D0DFF81481D8F80000F7B24A
:1013300000F00F00B04207D288F80070D8F8000023
:1013400000F00F00B04254D128683D4C810712D5FF
:10135000400703D5206840F4E0502060287800075B
:1013600003D5206840F4604020602068A96820F020
:10137000F000084320602878C0072DD03049686805
:101380000839012812D0022813D0032811D0096887
:10139000890700292DDA216821F00301014321602A
:1013A000FFF756FA814641F2883A0EE00968890350
:1013B000EFE709688901ECE7FFF74AFAA0EB0901BA
:1013C000514502D90320BDE8F0872068696800F024
:1013D0000C00B0EB810FEFD1D8F80010404601F0BF
:1013E0000F01B14207D90770006800F00F00B0424A
:1013F00001D00120E7E72878400705D52068E96893
:1014000020F4E050084320602878000706D52068C3
:10141000296920F4604040EAC100206000F01CF817
:101420002168084AC1F30311515CC84006490860AD
:101430000020FFF735FA0020C5E70000003C02401D
:1014400008380240FC31000804010020014800680F
:101450007047000004010020154810B5006810F026
:101460000C02144813D04110042A0FD0082A0ED1C0
:101470000F4C241F2268236802F03F025B0207D54D
:101480002068C0F38810A0FB010106E0084610BDEB
:101490002168C1F38811A1FB00010023FEF790FE33
:1014A0002168C1F30141491C4900B0FBF1F010BDB6
:1014B000083802400024F4002DE9F84F050076D0EA
:1014C0002878DFF8F8B2BE4CC00749D0DBF800102E
:1014D0005846C1F38101012908D00068C0F381009A
:1014E00002280AD1201D0068400206D5206880032A
:1014F00036D568680028E2D032E06868B0F5803FF1
:1015000010D0B0F5A02F206810D020F480302060DB
:10151000206820F4802020606868A0B1FFF798F967
:1015200006460CE0206840F48030F4E740F4802068
:101530002060F7E7FFF78CF9801B642873D82068D8
:101540008003F7D50CE0FFF783F9064605E000BFFE
:10155000FFF77EF9801B6428F0D820688003F7D459
:101560002878DFF8608280074FF000093ED5DBF86D
:101570000010584611F00C0F09D00068C0F381002C
:1015800002280BD18D48001F0068400206D4206855
:10159000800715D5E868012809D111E0E868B8B1DD
:1015A0000120C8F80000FFF753F9064605E002E104
:1015B000FFF74EF9801B0228C0D820688007F7D5B6
:1015C0002068296920F0F80040EAC10020600DE0A1
:1015D000C8F80090FFF73CF9064604E0FFF738F939
:1015E000801B02281FD820688007F7D428780007BE
:1015F00022D5724E744869696C3671B1012101605F
:10160000FFF726F9074604E0FFF722F9C01B02287E
:1016100009D830688007F7D50EE0C0F80090FFF7D2
:1016200017F9074605E083E0FFF712F9C01B02280F
:101630007ED830688007F7D42878400768D5DFF86F
:101640007CA100270AF1380ADAF80000C0000BD4A8
:10165000DAF8001041F08051CAF80010DAF8000002
:10166000012700F080500090584E3068C00510D41B
:10167000306840F480703060FFF7EAF8009005E0D1
:10168000FFF7E6F80099401A022851D83068C005E3
:10169000F6D54A4EA868683601280FD0052830686C
:1016A00010D020F001003060306820F0040030607D
:1016B000A868B8B1FFF7CCF800900FE0306840F0B0
:1016C0000100F4E740F004003060F7E7FFF7C0F8EE
:1016D0000099411A41F28830814264D8306880070D
:1016E000F4D50EE0FFF7B4F8009007E0FFF7B0F88C
:1016F0000099411A41F28830814254D830688007FD
:10170000F4D42FB1DAF8001021F08051CAF800109B
:10171000A869C0B3DBF80010C1F3810102294AD0E7
:101720000228484607D0C8F86000FFF791F800E0AB
:1017300039E005463AE04746C8F86000FFF788F808
:10174000064604E0FFF784F8801B02282BD82068A7
:101750008001F7D4D5E907010843A96A1C4A490862
:1017600002EB01416A6A41EA8211084395F82C10A4
:1017700040EA01611148001F016001203866FFF74F
:1017800067F8054605E014E0FFF762F8401B022801
:1017900009D820688001F7D50BE000BFFFF758F8A3
:1017A000401B022802D90320BDE8F88F2068800181
:1017B000F4D40020F8E70120F6E7000008380240E2
:1017C0000038024000004742800E4742007000404F
:1017D0000000FFFF4FF0E0210428086903D020F04B
:1017E00004000861704740F00400FAE7704710B544
:1017F000401EB0F1807F01D3012010BD4FF0E024E6
:1018000060610F21601700F07DF80020A0610720C3
:101810002061002010BD10B5FFF7E8FF10BDFEE706
:1018200010B5254886B00024016841F080010160B0
:10183000016801F080010591016841F0010101603A
:10184000016801F001010591016841F002010160A8
:10185000016801F002010591016841F00801016091
:10186000016801F008010591016841F01001016073
:101870000068694600F0100005904FF48050009019
:101880001120CDE901040D480394FEF7FFFE10205E
:10189000CDE9000469460A480294FEF7F7FE0820E5
:1018A00000900120CDE90104694606480394FEF743
:1018B000EDFE06B010BD00003038024000000240CE
:1018C000000402400010024010B5002208490948F7
:1018D00000F043FB0849074800F03FFD0749054871
:1018E00000F064F9BDE81040024800F083BD00003C
:1018F0000000002000070020880000206800002071
:10190000FEE770470907090E002806DA00F00F000D
:1019100000F1E02080F8141D704700F1E02080F80D
:10192000001470470148FFF781B900001003002040
:101930002DE9F84F0F46C1EBC70100EB8105824648
:101940000668D5E91301441A286C3835A04200D244
:101950000446E01C4FEA900806EB471916E0441ACB
:10196000A868A04200D20446E01C4FEA90089AF80A
:1019700010000090A3B2FAB23046E96801F0E6FA2E
:10198000E8682044E860A8692044A861D9F81809EB
:1019900080B2404505D9D5E90501814201D2002830
:1019A000DDD134B90120D6F83418B8408143C6F8E7
:1019B00034180020BDE8F88F7047704710B5FEF767
:1019C0004DFFBDE81040FFF726BF000030B52548A9
:1019D00093B00025016841F080510160006800F07B
:1019E000805011902048016841F4804101600068F6
:1019F000022400F480401190012000900004019026
:101A00008001CDE9064004200890A820CDE9090412
:101A100007200B906846FFF74FFD00B1FEE70CA9C9
:101A20000F2081E831004FF4A0500F904FF4805008
:101A3000109005210CA8FFF771FC00B1FEE7FFF73D
:101A400005FD4FF47A71B0FBF1F0FFF7D0FE0420F2
:101A5000FFF7C0FE00221146501EFEF779FF13B0BB
:101A600030BD00004038024000700040104801685E
:101A700041F4700101600F48016841F0010101600B
:101A80000C4A00210832116002680B4B1A400260B8
:101A9000031D0A4A1A60026822F480220260054887
:101AA0000C30016002495806803908607047000018
:101AB00088ED00E000380240FFFFF6FE1030002401
:101AC000D0F81802002180F850100846704770B511
:101AD0000546D0F81842D5F81C226178D2682078E3
:101AE0009047402322460121284600F068FB002051
:101AF00070BD10B50446812100F054FA0121204642
:101B000000F050FAD4F8180250B1D4F81C0204F5D1
:101B1000067480688047206801F03EFA002020604B
:101B2000002010BD10B5D0F81842E16C012908D191
:101B3000D0F81C0223786178C268184690470020CC
:101B4000E064002010BD000029210180004870479A
:101B5000C00000200A21018000487047F8000020E2
:101B600070B50646002508230322812100F014FBEE
:101B7000402303220121304600F00EFB542001F0E7
:101B8000B5FAC6F8180278B10446002084F850006F
:101B9000D6F81C0240688047402322460121304687
:101BA00000F00DFB284670BD0125FBE70246022030
:101BB000002902D00020C2F81C12704710B513464D
:101BC00090F8FC41D0F81822032C09D192F850402B
:101BD00034B9012482F850400A46812100F099FB73
:101BE000002010BD70B500220D78D0F818321446D0
:101BF00015F0600526D0202D4CD14A78921E0A2A75
:101C00001CD2DFE802F010081B1B1B1B1B140C0569
:101C1000887818643EE0012203F1400131E04888F1
:101C2000000A586436E0012203F1440129E0012250
:101C3000DA648A79194600F053F82BE000F045F891
:101C4000022070BD4D78062D04D00A2D1CD00B2D1E
:101C500020D11DE04B882225B5EB132F07D1CA8870
:101C6000142A00D91422D0F81C120C6808E021258F
:101C7000B5EB132F04D1CA88074C092A00D90922D1
:101C8000214600F047F805E0012203F14801F8E79A
:101C900088789864002070BDEC00002010B5D0F862
:101CA000142252689047002010BD134610B50A4612
:101CB000002100F084FA002010BD134610B50A463A
:101CC000002100F026FB002010BD10B50446802145
:101CD00000F0F6FA2046BDE81040002100F0F0BA0E
:101CE00010B50323C0F80821C0F8F431C0F80C2166
:101CF00013460A46002100F062FA002010BD10B51C
:101D000005210023C0F8F4111A46194600F057FACD
:101D1000002010BD10B502238261C0F8F431C26109
:101D200013460A46002100F0F4FA002010BD10B559
:101D300004210023C0F8F4111A46194600F0E9FA0C
:101D4000002010BD10B50A46024903A000F0E2F8D9
:101D5000004810BD1001002053544D333220484933
:101D60004420626F6F746C6F6164657220436F6EA4
:101D70006669670012200880004870472000002034
:101D800010B50A46024903A000F0C4F8004810BD8F
:101D90001001002053544D33322048494420626FD3
:101DA0006F746C6F6164657220496E7465726661F0
:101DB0006365000004200880004870471C00002074
:101DC00010B50A46024903A000F0A4F8004810BD6F
:101DD000100100207777772E7365726173696469EB
:101DE000732E67720000000010B50A46024903A076
:101DF00000F090F8004810BD1001002053544D33FE
:101E0000322048494420626F6F746C6F6164657260
:101E10000000000010B50A46024903A000F07AF85D
:101E2000004810BD100100203132333435363738C8
:101E300039300000F8B5044648880D46010A0829E3
:101E40004BD2DFE801F04A0409174A4A4048D4F867
:101E50001012207C0A6832E0207C02260028D4F888
:101E6000140205D0C16A684688470146467041E0C1
:101E7000816AF8E7C0B206282FD2DFE800F0030835
:101E80000D12171CD4F81012207C4A6817E0D4F801
:101E90001012207C8A6812E0D4F81012207CCA68E4
:101EA0000DE0D4F81012207C0A6908E0D4F8101272
:101EB000207C4A6903E0D4F81012207C8A696946C4
:101EC0009047014616E0207C38B9D4F81402416BE3
:101ED00068468847F5E7207C20B129462046FFF771
:101EE000F4FEF8BDD4F81402016B68468847014639
:101EF00007204870BDF800000028F2D0EA88002AC8
:101F0000EFD0824200D90246ADF800202046FFF70C
:101F100001FFF8BD70B5002300281DD00446002540
:101F200002E06D1CEDB2641C2678002EF9D102246B
:101F300004EB45041480CC545B1C0322CA540024D7
:101F40005B1C06E0CA545B1CDAB28C54521CD3B240
:101F5000401C0278002AF5D170BD10B580B1D0F8D0
:101F6000143213B10023C0F8143209B1C0F81012B2
:101F7000012180F8FC11027000F0BCF8002010BDB7
:101F8000022010BD10B50024D0F82002FEF787FD16
:101F900030B1012801D0022801D0022400E0012440
:101FA000204610BD10B50024D0F82002FEF755FDE4
:101FB00030B1012801D0022801D0022400E0012420
:101FC000204610BD2DE9F0411746044641B1D4F832
:101FD000140242698AB394F8FC01032842D043E01A
:101FE000D4F8F411002504F11400022933D1D0E90A
:101FF00002639E4207D9F31A83609AB2394620469B
:10200000FFF75BFE12E04068B0FBF3F103FB110148
:10201000A1B9984212D3D4F8F81188420ED2002206
:1020200011462046FFF749FEC4F8F85100231A462E
:102030001946204600F0C3F80DE012E0D4F814026F
:10204000C16829B194F8FC01032801D120468847D2
:102050002046FFF754FE94F80002012804D184F8CA
:10206000005201E0204690470020BDE8F08170B5A5
:102070001546044641B1D4F8140282693AB394F883
:10208000FC01032824D025E0D4F8F41104F5827073
:1020900003291FD1D0E902218A420BD9531A836048
:1020A0000846834200D303469AB229462046FFF7EA
:1020B000FCFD0FE0D4F81402016929B194F8FC0189
:1020C000032801D1204688472046FFF730FE01E073
:1020D00020469047002070BD0020704710B50121B8
:1020E00080F8FC11D0F81422017952689047002042
:1020F00010BD000010B5017859BB17490222C1F884
:10210000EC03C0F820124FF0A040086004204860A3
:102110000020C1E90320C1E90502C86108624862E4
:10212000C86208630846FFF703F820B14FF4A571B1
:102130000AA000F020FF80210748FEF74DFC402256
:1021400000210548FEF74CFC802201210248FEF7E1
:1021500047FC002010BD0000100300202E2E2F533E
:1021600072632F757362645F636F6E662E63000027
:102170000A0601F07F01D0F82002C1EBC10100EB9B
:10218000810002D590F83A00704790F8FA01704744
:10219000002070470020704770B51D46134600248C
:1021A000D0F820022A46FEF7A2FC30B1012801D067
:1021B000022801D0022400E00124204670BD10B5A1
:1021C0000024D0F82002FEF7BCFC30B1012801D079
:1021D000022801D0022400E00124204610BD70B581
:1021E0000022044640231146FFF7D6FF40252B4628
:1021F000002280212046C4F81051FFF7CDFF0120B6
:10220000256284F8FC01D4F8180228B1D4F814022D
:102210002179426820469047002070BD90F8FD115A
:1022200080F8FC110020704710B590F8FC110329CC
:1022300004D1D0F81412C96901B18847002010BD3B
:1022400001740020704710B50024D0F82002FFF779
:1022500019F830B1012801D0022801D0022400E091
:102260000124204610BD70B5044600F502700546F5
:1022700000F05FF80120C4F8F401B4F80E02C4F8CD
:10228000F80194F8080210F01F010AD001290DD0BE
:10229000022910D000F08001204600F011F8002043
:1022A00070BD2946204600F0AAF8F8E729462046E6
:1022B00000F08CF9F3E72946204600F019F9EEE723
:1022C00010B50024D0F82002FEF75FFC30B10128E1
:1022D00001D0022801D0022400E00124204610BDD4
:1022E00010B50024D0F82002FEF7E5FF30B1012838
:1022F00001D0022801D0022400E00124204610BDB4
:1023000090F8FC1180F8FD11042180F8FC110020E8
:10231000704710B50024D0F82002FEF766FC30B1FB
:10232000012801D0022801D0022400E00124204627
:1023300010BD0A7802704A7842708A78CB7802EB36
:10234000032242800A794B7902EB032282808A7948
:10235000C97902EB0121C18070470246002011B10A
:10236000C2F8141270470220704710B5D0F814223A
:1023700002241AB11268904700B90024204610BD0B
:1023800070B50E461A4D897804462970012928D85F
:1023900094F8FC01022802D0032822D105E099B16B
:1023A0000320616084F8FC0109E091B16068884213
:1023B0000AD0C1B22046FFF771FC2978616020463F
:1023C000FFF7D3FF02280CD02046BDE87040FFF78E
:1023D000AEBC022084F8FC0120466160FFF75EFC81
:1023E000F2E731462046BDE87040FFF76EBC0000C2
:1023F0008400002010B5FFF773FF002010BD2DE909
:10240000F04100264B78012532460A2B43D2DFE803
:1024100003F03C584251420805422A27FFF70AFDC3
:1024200063E004468888C8B9C888B8B9887800F0DD
:102430007F0794F8FC01032810D084F8FE71394618
:102440002046FFF700FF2046FFF771FC1FB1022076
:1024500084F8FC0149E084F8FC5146E020461AE08B
:10246000FFF78EFF41E0CB88012B14D190F8FC31AF
:10247000022B02D0032B0ED104E08260012200F176
:10248000080114E00122011D11E090F8FC21022A4C
:1024900004D0032A02D0FFF718FC26E0C560D0F86C
:1024A000041209B10321C160022200F10C01FFF7FF
:1024B00031FC1AE004464888012816D1C4F80452B9
:1024C0000BE0044690F8FC01022801D00328C5D196
:1024D0004888012809D1C4F80422D4F8140282687B
:1024E000204690472046FFF722FC3046BDE8F081A9
:1024F00070B50D460446287800260979C0F34110CE
:10250000012806D06878A0B301281FD003283FD146
:1025100007E0D4F81402294682682046904700203C
:1025200070BD94F8FC01022817D003282CD16888CC
:1025300028B921B1802902D02046FFF7C1FED4F886
:102540001402294682682046904713E094F8FC0163
:10255000022802D0032817D103E0C9B180291BD17A
:1025600016E06888A0B9480604D02046FFF70AFDA7
:10257000E5E703E02046FFF7DAFB09E094F8FC0109
:10258000022807D003280BD029462046FFF79DFBE1
:10259000304670BD4806FBD02046FFF791FEF7E7B6
:1025A000080601F07F0004EB001501D5143501E0A9
:1025B00005F582752046FFF7DBFD00B1012028609C
:1025C000022229462046FFF7A5FBE1E770B5054644
:1025D00090F8FC010C4603280DD1207901280AD877
:1025E000D5F81402826828469047E08830B928461A
:1025F000FFF79DFB02E02846FFF767FB002070BD58
:1026000030B54C781D4B01220D78AA40012CD0F832
:102610001C4818D044EA0242C0F81C280A7800EB93
:102620004210D0F8002B12040BD4D0F8002B0C89E8
:10263000C4F30A042243C97843EA81410A43C0F83B
:10264000002B002030BD92B21443C0F81C480C7817
:1026500000EB4410D0F800291204F2D4D0F800297D
:102660000D89C5F30A052A43C978890441EA8451D2
:102670000A431A43C0F80029E3E700000080001075
:10268000D0F800196FF30A01C0F80019D0F8081843
:10269000C1F34101022905D1D0F8001941F003012D
:1026A000C0F80019D0F8041841F48071C0F804187B
:1026B0000020704770B50446049D06990D980129C5
:1026C0000CD0E06840F04000E060204600F028F8C0
:1026D0004FF48030A063012D16D01DE0A16B21F4D2
:1026E0008031A163E1680D4A1140E160E16821F4A5
:1026F0004011E160012803D1E06840F48010E060FF
:10270000204600F00DF8E6E7A06840F00600A06063
:10271000A06840F02000A060002070BDBFFFBDFF9A
:1027200001220C4902E0521C8A420BD80369002B9B
:10273000F9DA026942F001020261012204E0521C4E
:102740008A4201D9032070470369DB07F7D10020D3
:1027500070470000400D0300F0B50D4604464F7869
:102760000126F206D3002D49287804EB4010012FF2
:1027700014D0D0F8007B27F40047C0F8007B2878FD
:1027800004EB4010C0F8002B287804EB4010C0F890
:10279000003B01202A7804EB42122BE0D0F80079AC
:1027A00027F40047C0F80079287804EB4010C0F8FF
:1027B0000029287804EB4010C0F8003901202A785D
:1027C00004EB421202E0401C884211D8D2F80839CA
:1027D0005B00F8D41021204600F024FBD4F81C083C
:1027E00029788E40B1B2884314E0401C884201D958
:1027F0000320F0BDD2F8083BDB06F6D4D4F8040879
:1028000040F48060C4F80408D4F81C0829788E408D
:1028100020EA0640C4F81C080020F0BD400D03006B
:1028200010B5D0F8041821F00201C0F804180320F4
:10283000FDF770FE002010BD10B5D0F8041841F06F
:102840000201C0F804180320FDF764FE002010BD4B
:102850002DE9F0470E460446DDE90A0A0025DDF8B9
:102860003C80089F5FEA0801A16B11D041F4002170
:10287000A1634FF00009C4F8009ED4F80018C4F812
:102880000018012807D0D4F8000840F0030007E042
:1028900041F40011ECE7D4F800080BB140F001005E
:1028A000C4F800081021204600F0BCFA204600F0D1
:1028B000A9FA4846C4F81098C4F814984FF0FF31AC
:1028C000C4F81818C4F81C984FF0904CFF230FE080
:1028D00004EB4511D1F80029002A02DAC1F800C939
:1028E00001E0C1F80009C1F81009C1F808396D1CF0
:1028F000AE42EDD800210FE004EB4112D2F8005BAC
:10290000002D02DAC2F800CB01E0C2F8000BC2F8D9
:10291000100BC2F8083B491C8E42EDD8D4F81018B1
:1029200021F48071C4F81018012F0AD11449C4F899
:102930003018D4F83018134A1143C4F83018D4F8BA
:102940003018A0616FF0804060611FB9A06940F04D
:102950001000A061A0690C490843A061BAF1000F02
:1029600003D0A06940F00800A061B8F1010F03D1C5
:10297000A06906490843A0610020BDE8F087000077
:10298000000180000300010000383C80040000408A
:10299000816821F0010181600020704730B54D78D9
:1029A0004D4C0B7800EB4313012D28D0D3F8105B6E
:1029B0006FF31205C3F8105B0B7800EB4313D3F8E9
:1029C000105B2540C3F8105B4B690BB18B684B6102
:1029D0000B7800EB4313D3F8104B44F40024C3F8F6
:1029E000104B0B7800EB4313D3F8104B8D68C5F3F5
:1029F00012052C43C3F8104B012A5CD061E04D69ED
:102A0000002DD3F810593BD06FF31205C3F81059BD
:102A10000B7800EB4313D3F810592540C3F8105935
:102A20004C698B689C4200D94B610B7800EB4313D7
:102A3000D3F8104944F40024C3F810490B7800EB94
:102A40004313D3F810494D69C5F3120554EA050440
:102A5000C3F810490B7800EB4313D3F8004944F056
:102A60000444C3F80049012A1ED04A6912B3D0F8C1
:102A700034280B78012199400A43C0F8342829E012
:102A80002540C3F810590B7800EB4313D3F81049D5
:102A900044F40024C3F810490B7800EB4313D3F837
:102AA00010496FF31204D3E70A69097800EB41106B
:102AB000C0F814290EE00B7800EB4313CA68C3F882
:102AC000142B097800EB4110D0F8001B41F00441B1
:102AD000C0F8001B002030BDFFFF07E00023C0F856
:102AE000103BD0F8103B43F40023C0F8103BD0F863
:102AF000103B43F01803C0F8103BD0F8103B43F0F4
:102B0000C043C0F8103B012905D1C0F8142B4FF089
:102B10008021C0F8001B002070474B780A7800EB3A
:102B20004212012B0BD0D2F8003B23F40013C2F861
:102B3000003BCA78032A17D0022A15D01DE0D2F82C
:102B4000003923F40013C2F80039CA78032A01D0EF
:102B5000022A12D1097800EB4110D0F8001941F097
:102B60008051C0F8001908E0097800EB4110D0F856
:102B7000001B41F08051C0F8001B002070474B78CB
:102B80000A7800EB4212012B14D0D2F8003B002B44
:102B900005DBD2F8003B23F08043C2F8003B097804
:102BA00000EB4110D0F8001B41F40011C0F8001BED
:102BB00000207047D2F80039002B05DBD2F800392D
:102BC00023F08043C2F80039097800EB4110D0F8B7
:102BD000001941F40011C0F80019E9E778B54E7802
:102BE0006FF06045834C0B7800EB4313012E2FD020
:102BF000D3F8106B6FF31206C3F8106B0B7800EB71
:102C00004313D3F8106B2640C3F8106B4B69002BAD
:102C10007DD08C6823445B1EB3FBF4F39BB20C782D
:102C200000EB4414D4F8106B05EAC3452E43C4F8F6
:102C3000106B0C7800EB4414D4F8105B8E685E4384
:102C4000C6F312031D43C4F8105B012A73D0B2E02F
:102C50004E6966B3D3F810696FF31206C3F81069B2
:102C60000B7800EB4313D3F810692640C3F81069C2
:102C70004C698B681C44641EB4FBF3F305EAC3443F
:102C80000B7800EB4313D3F810592C43C3F81049C9
:102C90000B7800EB4313D3F810494D69C5F31205C7
:102CA0002C43C3F81049CB78012B16D027E0D3F87A
:102CB00010592540C3F810590B7800EB4313D3F893
:102CC000104944F40024C3F810490B7800EB431377
:102CD000D3F810496FF312040FE00B7800EB4313A5
:102CE000D3F8104924F0C044C3F810490B7800EB26
:102CF0004313D3F8104944F00054C3F81049012A93
:102D000012D0CB78012B17D04B692BB300E037E002
:102D1000D0F834380D780124AC402343C0F834385F
:102D2000CB78012B08D017E00C7800EB44140B692A
:102D3000C4F81439F4E738E0D0F80838DB050B782C
:102D400000EB4313D3F8004902D444F0005401E0EF
:102D500044F08054C3F800490B7800EB4313D3F8D8
:102D6000004944F00444C3F80049CB78012B3ED11C
:102D700000928A8A93B20A78C96800F0E7F836E0D0
:102D80000B7800EB4313D3F8104B8D68C5F3120595
:102D90002C43C3F8104B0B7800EB4313D3F8104BC4
:102DA00044F40024C3F8104B4FE70B7800EB4313B7
:102DB000CA68C3F8142BCA78012A0FD1D0F80828A2
:102DC000D2050A7800EB4212D2F8003B02D443F05D
:102DD000005301E043F08053C2F8003B097800EB58
:102DE0004110D0F8001B41F00441C0F8001B002046
:102DF00078BD0000FFFF07E0816841F001018160BC
:102E000000207047002110220261054A491C9142AE
:102E100001D9032070470369DB06F7D4002070470F
:102E2000400D03000022202343EA8111016105497E
:102E3000521C8A4201D90320704703699B06F7D4CC
:102E400000207047400D03000021D0F8082812F040
:102E5000060F15D0D0F80828C2F34102012A0CD081
:102E6000D0F80828C2F34102032A06D0D0F8080897
:102E7000C0F34100022802D002E0032100E0022159
:102E800008467047406900F001007047D0F81818F4
:102E9000D0F81C08084080B27047D0F81818D0F855
:102EA0001C080840000C7047D0F81038D0F83428BF
:102EB000CA4002F0010243EAC21200EB4110D0F80E
:102EC00008091040704700EB4111D1F8081BD0F8F9
:102ED000140808407047416980690840704710B580
:102EE00003460020D21C920803F5805303E01C68BF
:102EF00041F8044B401C9042F9D3084610BD10B570
:102F0000C26822F0C042C260012901D021B107E0AD
:102F1000C16841F0005102E0C16841F08041C160E8
:102F20003220FDF7F7FA002010BDD0F8002822F477
:102F3000FE62C0F80028D0F800284FF4FE6303EAD0
:102F400001110A43C0F800280020704730B5002462
:102F5000039D6DB9DB1C9B0800EB023000F580502F
:102F600004E000BF51F8042B0260641C9C42F9D3BA
:102F7000002030BDFEE7FEE702E008C8121F08C1CE
:102F8000002AFAD170477047002001E001C1121FEA
:102F9000002AFBD17047000010B5002821D0114B4A
:102FA0000022001F196803E0814203D80A464968DD
:102FB0000029F9D152B11368841A9C4204D10068E7
:102FC00018441060104602E0506000E0186039B10B
:102FD00002680B1A934203D10B681A4402604968D5
:102FE000416010BD0801002008B5FDF73FFCFEF769
:102FF000EDFCFEF715FC36480025016841F08051D4
:103000000160006800F080500090FEF781F93048C0
:103010001038016841F48021016000682D4E00F4F1
:103020008020009030682C4CA0F584414C39E06041
:103030000AD010212948FDF701FC28B12849486829
:10304000096881F3088880473560FEF73DFC2078E9
:103050000128FCD120492570072210312148FDF7B5
:10306000F2F8F0B11F48A1884030084440221D49C1
:10307000FDF7D7F8A0884030A080A088B0F5806F19
:10308000E5D1A06800F068F8A068401CA060A580A9
:103090001149022017310822C8711348FEF78EFD2E
:1030A000D5E71048C07960B10128D0D1A08810B10F
:1030B000A06800F051F86420FDF72CFAFDF77AFCC7
:1030C000C5E71020A060A58001206080BFE7000058
:1030D000403802400040024034000020000402401A
:1030E000004000082409002000070020F0B50B3044
:1030F000154D20F007010024144A0FE003688B42AD
:103100000BD38B4205D95E1A43184768C3E90067A1
:1031100000E04368136002C004E0021D106800284C
:10312000ECD12046002802D1286808B10020F0BD6B
:10313000064A07481060074A121A22F00702C0E93F
:10314000002401202860D7E70C010020080100209E
:103150008C0D0020880F00202DE9F04104464FF02F
:103160000060DFF88C8000EB842586B00122082106
:103170004046FDF768FBFDF773FA0020102C07D0DE
:10318000202C05D0302C03D0402C01D061060DD16D
:10319000009018490220049048880290401C488002
:1031A0000120039005A96846FDF7C6F9124E0024D8
:1031B0004FF4806730190023C1788278407802EBA1
:1031C000012100EB0120315D01EB002229190220D1
:1031D000FDF708FA241DBC42ECDB00220821404622
:1031E000FDF731FBFDF7F4F906B0BDE8F081000012
:1031F000001002403400002064090020000000009C
:103200000000000001020304060708092C32000830
:103210000000002010010000782F00083C33000857
:103220001001002078120000882F0008751D00088A
:10323000B51D0008C11D0008E91D0008151E000885
:10324000451D0008811D0008040309041201000245
:10325000000000400912BABE000201020301000092
:10326000000001000000000010000000000000004D
:1032700042544C44434D4442544C44434D44020058
:103280000600FF0900A10175089540910375089596
:10329000088103C054000020CB020008C7020008C8
:1032A000D102000801000000100000000000000032
:1032B00000000000611B0008F31A0008E51B00086D
:1032C00000000000251B0008C11A0008CF1A0008E2
:1032D000000000000000000000000000491B000882
:1032E000491B0008491B0008551B0008090229005A
:1032F000010100C03209040000020300000009219E
:1033000011010001221400070581030800200705B0
:1033100001014000200000000921110100012214D8
:10332000000000000A06000200000040010000004A
:0C3330000024F400000000000000000079
:040000050800018965
:00000001FF
