:020000040800F2
:1000000000000220013C0008750F0008790F00086D
:100010007D0F0008810F0008850F00080000000018
:10002000000000000000000000000000890F000830
:100030008D0F000800000000910F0008950F0008C8
:10004000513C0008513C0008513C0008513C00085C
:10005000513C0008513C0008513C0008513C00084C
:10006000513C0008513C0008513C0008513C00083C
:10007000513C0008513C0008513C0008513C00082C
:10008000513C0008513C0008513C0008513C00081C
:10009000513C0008513C0008513C0008513C00080C
:1000A000513C0008513C0008513C0008513C0008FC
:1000B000513C0008513C0008513C0008513C0008EC
:1000C000513C0008513C0008513C0008513C0008DC
:1000D000513C0008513C0008513C0008513C0008CC
:1000E000513C0008513C0008513C0008513C0008BC
:1000F000513C0008513C0008513C0008513C0008AC
:10010000513C0008513C0008513C0008513C00089B
:10011000513C0008513C0008513C0008513C00088B
:10012000513C0008513C0008513C0008513C00087B
:10013000513C0008513C0008513C0008513C00086B
:10014000513C0008513C0008513C0008A10F000838
:10015000513C0008513C0008513C0008513C00084B
:10016000513C0008513C0008513C0008513C00083B
:10017000513C0008513C0008513C000800000000C0
:08018000513C0008513C00084D
:10018800044B05481B1A062B02D9044B03B1184728
:10019800704700BF5F0100205C01002000000000E4
:1001A80005490648091A891001EBD171491002D096
:1001B800034B03B1184770475C0100205C01002025
:1001C8000000000010B5064C237843B9FFF7D8FFAC
:1001D800044B13B10448AFF300800123237010BD12
:1001E8005C01002000000000503E000808B5084BE4
:1001F8001BB108480849AFF300800848036813B9E1
:10020800BDE80840CCE7064B002BF9D09847F7E744
:1002180000000000503E0008600100205C01002042
:100228000000000053B94AB9002908BF00281CBFC4
:100238004FF0FF314FF0FF3000F03CB882B0EC4691
:100248002DE9005000F01EF8DDF804E002B00CBC07
:10025800704700BF2DE9F041069C154606460F463B
:10026800984600F029F805FB01F300FB0838A5FBC8
:100278000023B21A434467EB0303C4E90023BDE833
:10028800F08100BF2DE9F041069C904606460F46D6
:100298001D4600F05FF900FB05F5A0FB082308FBED
:1002A8000155B21A2B4467EB0303C4E90023BDE8E8
:1002B800F08100BF704700BF00292DE9F043C0F26C
:1002C800A6800026002BC0F29C80884694469E4655
:1002D800154604460F46002B3DD18A4259D9B2FA39
:1002E80082F33BB1C3F120029F4020FA02F29D4005
:1002F80017439C40290C220CB7FBF1FEA8B201FB66
:100308001E7742EA074700FB0EF3BB420AD97F1962
:100318000EF1FF3280F00581BB4240F20281AEF15E
:10032800020E2F44FF1AA4B2B7FBF1F301FB1377B7
:1003380044EA074700FB03F0B84208D97F1903F1E4
:10034800FF3280F0F080B84240F2ED80023B43EA91
:100358000E43002203E08B420FD900221346341CBF
:1003680018BF012460424FF0000565EB4501584075
:10037800514000196941BDE8F083B3FA83F2002ABD
:1003880040F086808B4202D3844500F2DB80012353
:10039800E5E712B90123B3FBF2F5B5FA85F00028B9
:1003A8003BD1781B4FEA154E1FFA85FC0122B0FBA2
:1003B800FEF8210C0EFB180741EA07470CFB08F36F
:1003C800BB4207D97F1908F1FF3102D2BB4200F2C4
:1003D800BD808846FF1AA4B2B7FBFEF30EFB137765
:1003E80044EA07470CFB03FCBC4507D97F1903F116
:1003F800FF3102D2BC4500F2A7800B4643EA08430E
:10040800ADE752426FEA060663EB43035DE74042FD
:1004180061EB41014FF0FF3654E7C0F1200224FAA6
:1004280002F107FA00F385404FEA154ED740194309
:10043800B7FBFEF20B0C0EFB12771FFA85FC43EAA2
:1004480007430CFB02F79F4204FA00F407D95B1933
:1004580002F1FF3074D29F4272D9023A2B44DF1B5B
:1004680089B2B7FBFEF80EFB187341EA03430CFB95
:1004780008F79F4208D95B1908F1FF315CD29F4207
:100488005AD9A8F102082B44D81B48EA02428EE741
:10049800C2F120032CFA03F10EFA02FE20FA03F748
:1004A80041EA0E0E08FA02F028FA03F14FEA1E4557
:1004B8003843B1FBF5F8030C05FB18111FFA8EF74A
:1004C80043EA014107FB08F38B420CFA02FC09D905
:1004D80011EB0E0108F1FF3930D28B422ED9A8F169
:1004E80002087144C91A80B2B1FBF5F305FB131178
:1004F80040EA014107FB03F78F4208D911EB0E01CF
:1005080003F1FF3016D28F4214D9023B714443EAFB
:100518000843C91BA3FB0C89494509D305D0002210
:100528001DE79646FEE6134611E794404445F6D289
:10053800013BF4E70346EAE78846A5E7C846D1E762
:1005480002468CE713460AE7023B57E7A8F1020880
:100558002F443FE72DE9F041002B44D18A4215464C
:1005680004464FD9B2FA82F70E464FB1C7F12003BD
:10057800B94020FA03F602FA07F50E4300FA07F429
:100588004FEA154E230CB6FBFEF0AFB20EFB10611E
:1005980043EA014307FB00F1994209D95B1900F1CD
:1005A800FF3280F0EC80994240F2E98002382B4417
:1005B8005A1AA4B2B2FBFEF30EFB132244EA02421B
:1005C80007FB03F7974208D9521903F1FF3180F06E
:1005D800D880974240F2D580023B43EA004000268B
:1005E8003146BDE8F0818B4247D8B3FA83F6002E36
:1005F80048D18B4202D3824200F2CD80012031469D
:10060800BDE8F08112B90125B5FBF2F5B5FA85F818
:10061800B8F1000F77D14A1B4FEA154EAFB2012649
:10062800B2FBFEF0230C0EFB102143EA014107FB4D
:1006380000F38B4207D9491900F1FF3202D28B42ED
:1006480000F2BA801046C91AA4B2B1FBFEF30EFB41
:10065800131144EA014407FB03F7A74208D96419B8
:1006680003F1FF3280F08F80A74240F28C80023B7A
:1006780043EA00403146BDE8F08100263046314665
:10068800BDE8F081C6F1200422FA04F5B3402B43FB
:1006980020FA04FC01FA06F721FA04F54FEA134E92
:1006A8004CEA0707B5FBFEF8390C0EFB18551FFA84
:1006B80083FC41EA05450CFB08F1A94202FA06F25F
:1006C80004D9ED1808F1FF3467D3A0466D1ABFB2FC
:1006D800B5FBFEF40EFB145547EA05410CFB04FC80
:1006E8008C4504D9C91804F1FF355CD32C4644EA7B
:1006F8000844CCEB0101A4FB0223994248D344D01F
:10070800204600266CE7C8F1200401FA08F305FA30
:1007180008F520FA04F7E1404FEA154E1F43B1FBF4
:10072800FEF63A0C0EFB16111FFA85FC42EA01434D
:100738000CFB06F29A4200FA08F407D95B1906F195
:10074800FF3137D29A4235D9023E2B449B1ABFB2A9
:10075800B3FBFEF00EFB103347EA03430CFB00F13A
:10076800994207D95B1900F1FF3221D299421FD96A
:1007780002382B445A1A40EA0646674650E71046A4
:1007880016E70B4629E7134672E7B0409042B7D206
:10079800601E002624E7304622E7A94295D9A8F131
:1007A80002081D4492E78C45A0D9023C19449EE7F3
:1007B8001046DFE70E46C9E70238294443E700BF81
:1007C80010B58AB000240094284B1A6B42F08002BE
:1007D8001A631A6B02F080020092009A01941A6B55
:1007E80042F001021A631A6B02F001020192019AA7
:1007F80002941A6B42F002021A631A6B02F00202A8
:100808000292029A03941A6B42F008021A631A6B56
:1008180002F008020392039A04941A6B42F0100241
:100828001A631B6B03F010030493049B4FF480536B
:10083800059311230693079408940D4805A902F01F
:10084800B9FA4FF40043059306940794094805A99B
:1008580002F0B0FA0123059306930794089406481A
:1008680005A902F0A7FA0AB010BD00BF003802407F
:1008780000000240000C02400010024030B587B072
:10088800044600F50035AD02214801210A4602F070
:1008980081FB02F045F9102C08D0202C06D0302C12
:1008A80004D0402C02D014F07F0F0ED10023009307
:1008B80002230493174A1388591C118002930123B9
:1008C8000393684605A902F029FA002413E0E21C04
:1008D800114B995CA21C9A5C02EB0122611C595CC9
:1008E80001EB02221B5D0220291903EB02220023DF
:1008F80002F06AF90434B4F5806FE8DB044801219A
:10090800002202F047FB02F023F907B030BD00BF18
:10091800001002400000002078010020FEE700BF20
:1009280000B595B0002101912B4B1A6C42F0805212
:100938001A641B6C03F080530193019B0291274BAF
:100948001A6842F480421A601B6803F480430293D9
:10095800029B012308934FF48033099302230E93DB
:100968004FF480020F9204221092A822119212933F
:100978000723139308A801F047FD18B11848F6217A
:10098800FFF7CCFF0F23039302230493002305935F
:100998004FF4A05306934FF48053079303A80521FF
:1009A80001F078FF20B10E484FF48171FFF7B6FFD0
:1009B80002F020F80B4BA3FB0030800902F058FB33
:1009C800042002F06BFB4FF0FF3000210A4602F0D2
:1009D800FFFA15B05DF804FB0038024000700040D3
:1009E800683E0008D34D621070B582B002F092FBE9
:1009F800FFF796FFFFF7E4FE00250095454C236CB2
:100A080043F080532364236C03F080530093009BCE
:100A180002F0C6FA0195236B43F480232363236B0A
:100A280003F480230193019B3B4B1B683B4A1360F3
:100A380044F24C2293420CD039484FF4004102F062
:100A4800A1FA30B1374B1B68374A126882F308881D
:100A580098470022304B1A6000F07AF8334B1B7825
:100A6800012BFBD10022314B1A7031483149072242
:100A780003F022F9E8B92E4BDB7913B1012B0AD028
:100A8800ECE710222C4B1A6000222C4B1A80012212
:100A98002B4B1A80E2E7294B1B889BB21BB1264BD4
:100AA8001868FFF7EBFE642002F060FB02F0CEFA54
:100AB800D4E7224B1A881E4B224911FA82F203F11D
:100AC80040011E685D689C68D8681660556094602F
:100AD800D060103310328B42F3D1184A1388403358
:100AE8009BB2138013889BB2B3F5806FB6D1124CBA
:100AF8002068FFF7C3FE23680133236000220F4BF1
:100B08001A8011490223CB711048082203F058F8C3
:100B1800A4E700BF0038024000400240CC05002096
:100B2800000C02400440000800400008780500203E
:100B38008C0500200C000020140000207A050020FD
:100B4800000000207801002004000020D8050020C3
:100B580010B5094C20460949002202F041FB204605
:100B6800074902F055FB2046064903F03DF82046A8
:100B780002F056FB10BD00BFD80500201800002069
:100B8800B40000204C0000200368B3F1A04F29D125
:100B980010B586B04FF4C05301930223029300248A
:100BA8000394032304930A2305930F4801A902F031
:100BB80001F90E4B5A6B42F080025A6300945A6C4A
:100BC80042F480425A645B6C03F480430093009BB8
:100BD80043202146224602F0FBF9432002F02AFA7C
:100BE80006B010BD704700BF000002400038024048
:100BF80008B50146D0F8EC0301F56F7102F02CFB43
:100C080008BD00BF08B5C1EBC1039B000344D0F881
:100C1800EC03D3F8042202F04DFB08BD08B5C1EB84
:100C2800C1039B000344D0F8EC035A6C02F072FB3A
:100C380008BD00BF08B5D0F8EC0302F0F1FB08BD11
:100C480010B50446C3680BB9002100E00121D4F8AF
:100C5800EC0302F0D1FBD4F8EC0302F0ADFB10BDBD
:100C680010B50446D0F8EC0302F0CAFB2268D2F8AB
:100C7800003E43F00103C2F8003E236A23B1034A51
:100C8800136943F00603136110BD00BF00ED00E0D7
:100C980008B5D0F8EC0302F0BDFB08BD08B5D0F8E4
:100CA800EC0302F0CBFB08BD08B5D0F8EC0302F06A
:100CB800C3FB08BD08B5D0F8EC0302F0C1FB08BDC2
:100CC80008B5D0F8EC0302F0BDFB08BD03787BBB88
:100CD80010B503461748C0F8EC33C3F820024FF0AC
:100CE800A0430360042343600222C260002303611F
:100CF80043618261C36103624362C362036300F0BC
:100D0800D9F920B10C484FF4A571FFF707FE094C3B
:100D18002046802100F05AFE20460021402200F0A3
:100D280031FE20460121802200F02CFE002010BD5B
:100D380000207047FC070020743E000808B5D0F872
:100D4800200200F029FA10B1022802D003E00020A6
:100D580008BD012008BD022008BD00BF10B514461B
:100D6800D0F820021A46234600F0FAFC10B10228F7
:100D780002D003E0002010BD012010BD022010BDEC
:100D880008B5D0F8200200F01FFD10B1022802D0EB
:100D980003E0002008BD012008BD022008BD00BFF7
:100DA80008B5D0F8200200F08FFD10B1022802D05B
:100DB80003E0002008BD012008BD022008BD00BFD7
:100DC80008B5D0F8200200F0B1FD10B1022802D019
:100DD80003E0002008BD012008BD022008BD00BFB7
:100DE800D0F8202211F0800F08D001F07F03C3EB68
:100DF800C3039B00134493F83A00704701F07F0146
:100E0800C1EBC1018900114491F8FA01704700BF94
:100E180008B5D0F8200200F091FC10B1022802D0E9
:100E280003E0002008BD012008BD022008BD00BF66
:100E380008B5D0F8200200F01FFD10B1022802D03A
:100E480003E0002008BD012008BD022008BD00BF46
:100E580008B5D0F8200200F0E3FC10B1022802D057
:100E680003E0002008BD012008BD022008BD00BF26
:100E780012230B80004870473800002004230B80A1
:100E8800004870473400002008B50A4620B90548D4
:100E9800054902F055FD03E00248034902F050FD00
:100EA800014808BD843E0008EC0B002010B50A4636
:100EB800034C0448214602F043FD204610BD00BF04
:100EC800EC0B00209C3E000808B50A4620B90548EE
:100ED800054902F035FD03E00248034902F030FD00
:100EE800014808BDB03E0008EC0B002008B50A46D2
:100EF80020B90548054902F023FD03E002480349EB
:100F080002F01EFD014808BDBC3E0008EC0B0020A5
:100F180008B50A4620B90548054902F011FD03E065
:100F28000248034902F00CFD014808BDD83E0008FC
:100F3800EC0B00200020704700207047084BD3F8C6
:100F48001802002304E0C15C064AD1540133DBB225
:100F58003F2BF8D90122044B1A700020704700BFBC
:100F6800D80500208C05002078050020704700BFB8
:100F7800FEE700BFFEE700BFFEE700BFFEE700BFD9
:100F8800704700BF704700BF704700BF08B502F048
:100F9800DBF802F095F808BD08B5024800F012F930
:100FA80008BD00BFFC07002008B5032001F0FEFFC4
:100FB8006FF00B0000210A4602F00AF86FF00A00F1
:100FC80000210A4602F004F86FF0090000210A46E1
:100FD80001F0FEFF6FF0040000210A4601F0F8FF5F
:100FE8006FF0030000210A4601F0F2FF6FF00100E4
:100FF80000210A4601F0ECFF4FF0FF3000210A46BD
:1010080001F0E6FF08BD00BF2DE9F04782B00746B2
:101018000D46D0F80080CB005B1A9B000344DE6CC1
:101028001A6DB61A1B6C9E4200D91E4606F10309BA
:101038004FEA99091EE05E1AC5EBC5039B003B44C5
:101048001B6C9E4200D91E4606F103094FEA990916
:10105800EC00641BA4003C44616C3B7C009340465C
:10106800EAB2B3B200F084FF636C33446364236D67
:1010780033442365424608EB451303F510639B6927
:101088009BB24B4509D9EB005B1B9B003B44196D98
:10109800DB6C994201D2002BCDD13EB90123AB4084
:1010A800D2F8341821EA0303C2F83438002002B019
:1010B800BDE8F08700286AD0F0B58BB0044603235A
:1010C80080F8B933FFF760FD206800F0E1FC2546A1
:1010D80055F8107B6E460FCD0FC60FCD0FC695E89D
:1010E800030086E80300231D0ECB384600F08EFC73
:1010F8002068002100F0D2FC002210E0D3009B1AE7
:101108009B002344012183F8391083F83820DA87BB
:10111800002183F83B1019645964D96401320E2AFE
:10112800ECD9002218E0D3009B1A9B00234400212D
:1011380083F8F91183F8F821DA8783F8FB11C3F8EB
:101148000012C3F80412C3F80C12236802F140001D
:1011580003EB8003596001320E2AE4D9254655F87D
:10116800107B6E460FCD0FC60FCD0FC695E8030056
:1011780086E80300231D0ECB384600F0CFFC012380
:1011880084F8B933206801F0C1F8002001E001209B
:1011980070470BB0F0BD00BF90F8B833012B0ED0EC
:1011A80010B50446012380F8B833006801F0A2F8AE
:1011B800206800F067FC002084F8B80310BD022006
:1011C800704700BF2DE9F84F04460668304601F025
:1011D800D9F8002840F09282206801F0A3F800288E
:1011E80000F08C82206801F09DF810F0020F04D006
:1011F8002268536903F002035361206801F092F8F2
:1012080010F4002F5CD0206801F090F80746002504
:1012180053E017F0010F4ED05FFA85F92068494670
:1012280001F094F8804610F0010F31D006EB451319
:101238000122C3F8082B03F530632269012A12D171
:10124800EA00521B92002244D2F800121B69C3F331
:101258001203C91AC2F81012D2F80412D2F80032D6
:101268000B44C2F8043220464946FFF7CBFC2369F9
:10127800012B0DD165B9C5EBC5039B002344D3F8F9
:101288000C322BB92068012104F56F7201F09AF82D
:1012980018F0080F07D02046FFF7AAFC06EB451305
:1012A8000822C3F8082B18F0100F04D006EB4513DA
:1012B8001022C3F8082B01357F08002FA9D100E0C0
:1012C8000025206801F02EF810F4802F6BD02068DC
:1012D80001F034F80746002563E017F0010F5ED0EF
:1012E8005FFA85F92068494601F03AF8804610F01F
:1012F800010F2DD0012202FA05F0D6F8343823EA7E
:101308000003C6F8343806EB4513C3F808292369E7
:10131800934209D1EB005B1B9B00234403F140027D
:10132800596C1B6C0B44536020464946FFF776FC0A
:101338002369012B0CD15DB9C5EBC5039B00234480
:10134800DB6C2BB92068012104F56F7201F03AF8C3
:1013580018F0080F04D006EB45130822C3F8082933
:1013680018F0100F04D006EB45131022C3F8082913
:1013780018F0400F04D006EB45134022C3F80829A3
:1013880018F0020F04D006EB45130222C3F808290F
:1013980018F0800F03D020462946FFF735FE0135A7
:1013A8007F08002F99D1206800F0BCFF00280DDAD3
:1013B800D6F8043823F00103C6F804382046FFF7AE
:1013C80067FC2268536903F000435361206800F00A
:1013D800A9FF10F4006F0CD0D6F8083813F0010FED
:1013E80002D02046FFF73CFC2268536903F40063EF
:1013F8005361206800F096FF10F4805F4FD03746A5
:1014080006F50068D8F8043023F00103C8F8043062
:101418002068102100F058FB002207E007EB421378
:10142800FF21C3F80819C3F8081B01326368934207
:10143800F4D84FF0FF33C8F81830D8F81C3043F010
:101448000113C8F81C30236B63B1D8F8843043F01B
:101458000B03C8F88430D8F8443043F00B03C8F8BD
:1014680044300BE0D8F8143043F00B03C8F81430BC
:10147800D8F8103043F00B03C8F81030D6F800380D
:1014880023F4FE63C6F800382068217C04F56F72E7
:1014980000F098FF2268536903F480535361206871
:1014A80000F040FF10F4005F00F09380206800F027
:1014B8006DFF2268D36823F47053D360206800F06E
:1014C800CFFB50B90023E3604FF4007363612268D7
:1014D800D36843F41053D36073E00323E3604023DD
:1014E800636101F087FA864B0344864A934205D824
:1014F8002268D36843F47053D36062E0824B03449C
:10150800824A934205D82268D36843F46053D36073
:1015180057E0A0F57403A3F510537D4A934205D80C
:101528002268D36843F45053D3604AE0A0F1837330
:10153800A3F5E743774A934205D82268D36843F472
:101548004053D3603DE0744B0344744A934205D83A
:101558002268D36843F43053D36032E0704B0344BD
:10156800704A934205D82268D36843F42053D36065
:1015780027E06D4B03446D4A934205D82268D3682F
:1015880043F41053D3601CE0A0F1B773A3F558538C
:10159800674A934205D82268D36843F40053D3605E
:1015A8000FE0644B0344644A934205D82268D36829
:1015B80043F4E053D36004E02268D36843F4C05393
:1015C800D3602046FFF73CFB2268536903F40053BD
:1015D8005361206800F0A6FE10F0100F42D0226878
:1015E800936923F010039361376A07F00F08C7F374
:1015F8004343022B1CD147F6F0731F402DD03F09FF
:101608004FEAC809C8EB090A4FEA8A0AA2443046D9
:10161800DAF804123A4600F0EBFDDAF804323B44FB
:10162800CAF80432DAF810321F44CAF8107214E00B
:10163800062B12D1304604F56F71082200F0D8FD50
:10164800C7F30A174FEAC803C8EB03029200224403
:10165800D2F810323B44C2F810322268936943F042
:1016680010039361206800F05DFE10F0080F07D0AA
:101678002046FFF7DFFA2268536903F00803536135
:10168800206800F04FFE10F4801F08D02046E9B211
:10169800FFF70AFB2268536903F48013536120683B
:1016A80000F040FE10F4001F08D02046E9B2FFF712
:1016B800F5FA2268536903F400135361206800F0B7
:1016C80031FE10F0804F07D02046FFF7F3FA22686A
:1016D800536903F080435361206800F023FE10F043
:1016E800040F0BD023685D6815F0040F02D0204664
:1016F800FFF7E6FA23685A6815435D60BDE8F88F7E
:10170800405327FFFF340C00401E1BFF3F420F00D1
:101718007F4F12001FD6130060B6E5FE5FE3160088
:1017280000D3CEFE3F771B00C05BB3FEBF91210004
:101738001F753800E05459FEDF9C410090F8B8331B
:10174800012B0BD010B50446012380F8B83300688C
:1017580000F0C0FD002084F8B80310BD02207047D7
:1017680038B50546C8B210F0800F07D001F07F04E5
:10177800C4EBC404A40038342C4407E001F07F040F
:10178800C4EBC404A40004F5FC742C4401F07F01EC
:101798002170C0096070A260E37000B1E180022B83
:1017A80001D10023237195F8B833012B0AD0012306
:1017B80085F8B8332868214600F072FA002085F8C9
:1017C800B80338BD022038BD10B50446CAB212F0BD
:1017D800800F07D001F07F03C3EBC3039B003833AE
:1017E800034407E001F07F03C3EBC3039B0003F549
:1017F800FC73034401F07F011970D2095A7094F800
:10180800B823012A0AD0012284F8B823206819468F
:1018180000F08CFA002084F8B80310BD022010BD37
:1018280070B501F07F06F400A51BAD0005F5FC7549
:101838004119A41BA4000444C4F80422C4F80C32BF
:101848000023C4F8103284F8F93184F8F861036988
:10185800012B05D1C6EBC604A4000444C4F8082231
:1018680026B90068DAB200F0D5FA03E00068DAB207
:1018780000F092FB002070BD70B501F07F06F40007
:10188800A51BAD0038354119A41BA40004446264AB
:10189800E36400232365012384F8393084F8386031
:1018A8000369012B04D1C6EBC604A4000444A26456
:1018B80026B90068DAB200F0ADFA03E00068DAB2DF
:1018C80000F06AFB002070BD38B50446CAB212F0B9
:1018D800800F07D001F07F03C3EBC3039B003833AD
:1018E800034405E0C1EBC1039B0003F5FC7303440B
:1018F8000120987001F07F051D70D2095A7094F884
:10190800B823824210D084F8B8032068194600F042
:1019180085FC2DB92068217C04F56F7200F052FD1A
:10192800002084F8B80338BD022038BD10B504463D
:10193800CAB212F0800F07D001F07F03C3EBC303D4
:101948009B003833034405E0C1EBC1039B0003F55A
:10195800FC7303440020987001F07F011970D209CC
:101968005A7094F8B823012A0AD0012284F8B823BF
:101978002068194600F07EFC002084F8B80310BDEA
:10198800022010BD30B40468636A19B943EA024002
:10199800A06218E00D46A06A03EB1040002308E09F
:1019A80003F1400104EB8101496800EB1140013368
:1019B800DBB2691E8B42F3DB40EA024005F13F01CE
:1019C80004EB81014860002030BC7047036859620D
:1019D800002070470C4B01E0013B10D00269002A3F
:1019E800FADA036943F001030361074B01E0013BA5
:1019F80007D0026912F0010FF9D1002070470320C7
:101A080070470320704700BF400D030084B010B535
:101A1800044603A880E80E00089B012B18D1A36B8D
:101A280023F48033A363E36823F4840323F040039F
:101A3800E360E36823F44013E3600F9B012B03D1B9
:101A4800E36843F48013E3602046FFF7C3FF09E02F
:101A5800E36843F04003E3602046FFF7BBFF4FF421
:101A68008033A363069B012B07D1A36843F00603C9
:101A7800A360A36843F02003A3600020BDE81040E2
:101A880004B07047836843F0010383600020704707
:101A9800836823F0010383600020704708B5C3689A
:101AA80023F0C043C360012904D1C36843F0005345
:101AB800C36004E019B9C36843F08043C3603220AF
:101AC80001F054FB002008BD890141F020010161AB
:101AD800054B01E0013B05D0026912F0200FF9D156
:101AE8000020704703207047400D03001023036156
:101AF800054B01E0013B05D0026912F0100FF9D146
:101B08000020704703207047400D0300D0F80038CC
:101B18001943C0F800180020704700BF84B0F8B51A
:101B2800044607A880E80E00119E26B9A36B43F46B
:101B38000013A36303E0A36B43F40023A363002310
:101B4800C4F8003E04F50065D4F80038C4F800383D
:101B58000C9B012B0BD1099B23B920460021FFF7D1
:101B6800D5FF08E020460121FFF7D0FF03E020461B
:101B78000321FFF7CBFF20461021FFF7A5FF2046E2
:101B8800FFF7B4FF00232B616B614FF0FF32AA61AE
:101B9800EB61079848B304F51063002219461F68E3
:101BA800002F03DA4FF090471F6001E000271F6005
:101BB80000270F61FF278F60013220338242EDD367
:101BC80004F53063002219461F68002F03DA4FF02E
:101BD80090471F6001E000271F6000270F61FF2763
:101BE8008F60013220338242EDD12B6923F4807358
:101BF8002B610A9B012B0ED1174B2B632B6B43F4E4
:101C0800803343F003032B632B6B0023A3616FF036
:101C18008043636109E00022A2616FF08042626143
:101C28001BB9A36943F01003A361A2690B4B1343CB
:101C3800A3610D9B1BB1A36943F00803A361012EA7
:101C480005D1A36943F0804343F00403A361002056
:101C5800BDE8F84004B070470001800000383C80BF
:101C6800D0F8083800F5006013F0060F10D083682C
:101C780003F00603022B0DD0836803F00603062B3E
:101C88000AD0836803F00603042B07D102207047AB
:101C980000207047032070470320704700207047DA
:101CA80070B44B78012B1FD1D0F81C280D78AB40AD
:101CB8009BB21343C0F81C380E78730103F5106308
:101CC8001A5812F4004F2DD11C5844F0805545F491
:101CD80000458A68C2F30A042C43CA7844EA82425F
:101CE80042EA86521A501DE0D0F81C280D784FF4AD
:101CF8008033AB401343C0F81C380B785B0103F505
:101D080030631A5812F4004F0CD11A5842F080541C
:101D180044F400448A68C2F30A022243C97842EABA
:101D280081421A50002070BC704700BF38B54B780C
:101D3800012B33D10B785B0103F510631A5822F499
:101D480000421A500B785B0103F510634FF00062F4
:101D58001A500B785B0103F510634FF080421A505C
:101D68000C7800EB441404F51064294B01E0013BA6
:101D780049D0A26812F0804FF9D10D4604461021CF
:101D8800FFF7A2FED4F81C28297801238B409BB2C8
:101D980022EA0303C4F81C38002038BD0B785B0125
:101DA80003F53063C25822F40042C2500B785B013D
:101DB80003F530634FF00062C2500B785B0103F506
:101DC80030634FF08042C2500C7800EB441404F5A5
:101DD80030640F4B01E0013B17D0A26812F0100FDE
:101DE800F9D1D0F8043843F48063C0F80438D0F847
:101DF8001C2809784FF480338B4022EA0303C0F88B
:101E08001C38002038BD032038BD032038BD00BF72
:101E1800400D030030B44B78012B69D14B69EBB905
:101E28000B7800EB4313D3F8104924F0FF5424F443
:101E3800C014C3F810490B7800EB4313D3F81049CA
:101E480044F40024C3F810490B7800EB4313D3F88B
:101E58001049E40CE404C3F810492CE00B7800EBBB
:101E68004313D3F81049E40CE404C3F810490B7881
:101E780000EB4313D3F8104924F0FF5424F4C014A2
:101E8800C3F810498B684C699C4200D94B610B78A8
:101E980000EB4313D3F8104944F40024C3F8104965
:101EA8000B7800EB4313D3F810594C69C4F31204B0
:101EB8002C43C3F810490B785B0103F51063C45831
:101EC80044F00444C450012A06D10B7800EB4310B7
:101ED8000B69C0F8143947E04B69002B44D0D0F89F
:101EE8003428097801238B401343C0F834383BE089
:101EF8000B7800EB4313D3F8104BE40CE404C3F85D
:101F0800104B0B7800EB4313D3F8104B24F0FF541D
:101F180024F4C014C3F8104B4B690BB18B684B61A8
:101F28000B7800EB4313D3F8104B44F40024C3F8A8
:101F3800104B0B7800EB4313D3F8105B8C68C4F399
:101F480012042C43C3F8104B012A05D10B7800EB7F
:101F58004313CA68C3F8142B0B785B0103F530638D
:101F6800C25842F00442C250002030BC704700BF43
:101F780030B49DF8084064B903339B0809D000F5D4
:101F8800805000EB023251F8045B156001349C422A
:101F9800F9D1002030BC704770B582B04B78012B66
:101FA80040F0A9804B69EBB90B7800EB4313D3F8E9
:101FB800104924F0FF5424F4C014C3F810490B78D6
:101FC80000EB4313D3F8104944F40024C3F8104934
:101FD8000B7800EB4313D3F81049E40CE404C3F87E
:101FE800104945E00B7800EB4313D3F81049E40C93
:101FF800E404C3F810490B7800EB4313D3F81049F5
:1020080024F0FF5424F4C014C3F810490C7800EBF2
:102018004414D4F810598E684B693344013BB3FB20
:10202800F6F3724E06EAC3432B43C4F810390B7813
:1020380000EB4313D3F810594C69C4F312042C4332
:10204800C3F81049CB78012B40F0C8800B7800EB1F
:102058004313D3F8104924F0C044C3F810490B784F
:1020680000EB4313D3F8104944F00054C3F8104967
:10207800012A06D10B7800EB43130C69C3F8144905
:102088000CE0CB78012B0CD04B6903B3D0F8344863
:102098000E780123B3402343C0F83438CB78012BA2
:1020A80015D1D0F8083813F4807F08D10B785B017C
:1020B80003F51063C45844F00054C45007E00B788B
:1020C8005B0103F51063C45844F08054C4500B7886
:1020D8005B0103F51063C45844F00444C450CB7842
:1020E800012B7FD114460B46C9681A789B8A009445
:1020F800FFF73EFF76E00B7800EB4313D3F8104B65
:10210800E40CE404C3F8104B0B7800EB4313D3F84A
:10211800104B24F0FF5424F4C014C3F8104B4B693F
:10212800A3B90B7800EB4313D3F8105B8C68C4F3A6
:1021380012042C43C3F8104B0B7800EB4313D3F86D
:10214800104B44F40024C3F8104B1DE08D680C7844
:1021580000EB4414D4F8106B2B44013BB3FBF5F3AC
:102168009BB2224D05EAC3453543C4F8105B0C7891
:1021780000EB4414D4F8106B8D6805FB03F3C3F32C
:1021880012033343C4F8103B012A05D10B7800EB46
:102198004313CA68C3F8142BCB78012B15D1D0F898
:1021A800083813F4807F08D10B785B0103F530639E
:1021B800C25842F00052C25007E00B785B0103F5A9
:1021C8003063C25842F08052C2500B785B0103F56D
:1021D8003063C25842F00442C25003E0012A7FF43F
:1021E80053AF47E7002002B070BD00BF0000F81FE2
:1021F800033292080FD030B40C46002300F5805506
:102208002D6844F8045B01339342F7D101EB820156
:10221800084630BC70470846704700BF4B78012B12
:1022280013D10B785B0103F51063C258002A03DB56
:10223800C25822F08042C2500B785B0103F510634C
:10224800C25842F40012C25012E00B785B0103F549
:102258003063C258002A03DBC25822F08042C250C1
:102268000B785B0103F53063C25842F40012C25088
:10227800002070474B78012B15D10B785B0103F5D3
:102288001063C25822F40012C250CB78023BDBB272
:10229800012B1DD80B785B0103F51063C25842F07F
:1022A8008052C25014E00B785B0103F53063C258CA
:1022B80022F40012C250CB78023BDBB2012B07D8C4
:1022C8000B785B0103F53063C25842F08052C2506C
:1022D80000207047D0F8003823F4FE63C0F80038B7
:1022E800D0F80038090101F4FE610B43C0F800384A
:1022F8000020704708B5D0F8043823F00203C0F86E
:102308000438032000F032FF002008BD08B5D0F8DB
:10231800043843F00203C0F80438032000F026FF15
:10232800002008BD4369806918407047D0F8183804
:1023380000F50060C0691840000C704700F50063A4
:10234800D0F81808DB69184080B2704700F5306390
:1023580003EB41118B6800F5006040691840704735
:1023680010B4D0F81048D0F8343800EB4110D0F849
:102378000809CB40DB01DBB2234318405DF8044B6E
:10238800704700BF406900F001007047D0F800397D
:1023980023F4FF6323F00703C0F8003900F5006356
:1023A8009A6802F00602042A05D1D0F8002942F002
:1023B8000302C0F800295A6842F480725A6000206B
:1023C800704700BF10B40024C0F8104BD0F8104B71
:1023D80044F40024C0F8104BD0F8104B44F0180413
:1023E800C0F8104BD0F8104B44F0C044C0F8104B64
:1023F800012905D1C0F8142B4FF08023C0F8003B09
:1024080000205DF8044B7047002800F0B58170B5D6
:1024180082B00446036813F0010F5AD0A04B9B68A2
:1024280003F00C03042B0AD09D4B9B6803F00C03AC
:10243800082B0DD19A4B5B6813F4800F08D0984B8A
:102448001B6813F4003F44D06368002B41D195E129
:102458006368B3F5803F05D1914A136843F480332C
:10246800136015E0B3F5A02F09D18D4B1A6842F41B
:1024780080221A601A6842F480321A6008E0884B99
:102488001A6822F480321A601A6822F480221A60CC
:1024980063687BB100F064FE054605E000F060FE6D
:1024A800401B642800F26C817D4B1B6813F4003FCD
:1024B800F4D00EE000F054FE054605E000F050FEB2
:1024C800401B642800F25E81754B1B6813F4003FC3
:1024D800F4D1236813F0020F50D0714B9B6813F0AE
:1024E8000C0F0AD06E4B9B6803F00C03082B16D117
:1024F8006B4B5B6813F4800F11D1694B1B6813F0A9
:10250800020F03D0E368012B40F03E81644A136850
:1025180023F0F803216943EAC10313602EE0E3685E
:10252800D3B101225F4B1A6000F01AFE054605E0A0
:1025380000F016FE401B022800F22881584B1B6849
:1025480013F0020FF4D0564A136823F0F8032169F8
:1025580043EAC103136011E00022524B1A6000F0F5
:10256800FFFD054605E000F0FBFD401B022800F2D8
:102578000F814B4B1B6813F0020FF4D1236813F043
:10258800080F26D0636993B10122474B1A6000F007
:10259800E7FD054605E000F0E3FD401B022800F2D8
:1025A800F9803F4B5B6F13F0020FF4D011E000226B
:1025B8003D4B1A6000F0D4FD054605E000F0D0FD63
:1025C800401B022800F2E880354B5B6F13F0020FC6
:1025D800F4D1236813F0040F7CD0314B1B6C13F03B
:1025E800805F0DD1002301932D4B1A6C42F080526D
:1025F8001A641B6C03F080530193019B012500E0D2
:1026080000252A4B1B6813F4807F13D1274A1368CF
:1026180043F48073136000F0A3FD064605E000F064
:102628009FFD801B022800F2B980204B1B6813F421
:10263800807FF4D0A368012B05D1194A136F43F0AA
:102648000103136714E0052B09D1154B1A6F42F0EB
:1026580004021A671A6F42F001021A6708E0104B69
:102668001A6F22F001021A671A6F22F004021A6721
:10267800A3688BB100F074FD064607E000F070FD1A
:10268800801B41F28833984200F28A80044B1B6F0A
:1026980013F0020FF2D017E000F062FD06460EE0DC
:1026A8000038024000004742800E47420070004058
:1026B80000F056FD801B41F28833984272D8404B97
:1026C8001B6F13F0020FF3D125B13D4A136C23F0B1
:1026D80080531364A369002B66D0394A926802F0CC
:1026E8000C02082A62D0022B33D10022354B1A6023
:1026F80000F036FD054604E000F032FD401B0228DC
:1027080056D82F4B1B6813F0007FF5D1E269236A76
:102718001343626A43EA8213A26A5208013A43EAFF
:102728000243E26A43EA0263254A53600122254BC9
:102738001A6000F015FD044604E000F011FD001BCE
:10274800022837D81E4B1B6813F0007FF5D00020F5
:1027580033E000221B4B1A6000F002FD044604E03F
:1027680000F0FEFC001B022826D8154B1B6813F04E
:10277800007FF5D1002020E00120704701201CE0F7
:1027880003201AE0032018E0012016E0032014E0DB
:10279800032012E0032010E003200EE003200CE0E9
:1027A80003200AE0032008E0002006E0012004E0FE
:1027B800032002E0032000E0032002B070BD00BF48
:1027C800003802406000474238B52F4B9B6803F041
:1027D8000C03042B55D0082B01D02C4838BD2A4BAC
:1027E8005A6802F03F025B6813F4800F20D0264B32
:1027F8005B68C3F38813DC000025690141EAD461F2
:102808006001041B61EB0505A90141EA9461A0017F
:10281800001B61EB0501C01841F100014B0243EABE
:10282800D0534402204619460023FDF7FBFC1FE065
:10283800154B5B68C3F38813DC000025690141EA86
:10284800D4616001041B61EB0505A90141EA9461AB
:10285800A001001B61EB0501C01841F100018B02CA
:1028680043EA90538402204619460023FDF7DAFC18
:10287800054B5B68C3F3014301335B00B0FBF3F026
:1028880038BD034838BD00BF003802400024F400BA
:1028980000127A00002800F0978070B50D460446B3
:1028A800504B1B6803F00F038B4208D2CBB24D4A42
:1028B8001370136803F00F038B4240F0878023687E
:1028C80013F0020F17D013F0040F04D0464A936890
:1028D80043F4E0539360236813F0080F04D0424A8E
:1028E800936843F4604393603F498B6823F0F00298
:1028F800A36813438B60236813F0010F2FD062681D
:10290800012A05D1384B1B6813F4003F0ED15FE054
:10291800931E012B05D8344B1B6813F0007F05D19B
:1029280058E0314B1B6813F0020F55D02E498B68C5
:1029380023F0030313438B6000F012FC064606E005
:1029480000F00EFC801B41F28833984246D8264B93
:102958009B6803F00C036268B3EB820FF0D1214B44
:102968001B6803F00F03AB4207D9EAB21D4B1A707C
:102978001B6803F00F03AB4232D1236813F0040F36
:1029880006D019498B6823F4E052E36813438B603F
:10299800236813F0080F07D0134A936823F46043A1
:1029A800216943EAC1039360FFF70EFF0E4B9B6852
:1029B800C3F303130D4AD35CD8400D4B18600020B5
:1029C80000F082FB002070BD01207047012070BD1F
:1029D800012070BD012070BD012070BD032070BDB5
:1029E800012070BD003C024000380240F83E00085B
:1029F80078000020014B1868704700BF780000205D
:102A080010B409490C6924F440740C610C6944F44D
:102A180040740C610C6944F001040C61026043606D
:102A28005DF8044B704700BF003C0240074B1A6931
:102A380022F440721A611A6942F400721A611A6922
:102A480042F001021A610160704700BF003C024079
:102A5800074B1A6922F440721A611A6942F48072AB
:102A68001A611A6942F001021A610180704700BFB9
:102A7800003C0240064B1A6922F440721A611A6936
:102A88001A611A6942F001021A610170704700BFA9
:102A9800003C0240204BDB6813F0100F07D01F4AA0
:102AA800D36943F01003D36110221B4BDA601A4B31
:102AB800DB6813F0200F07D0184AD36943F00803E6
:102AC800D3612022144BDA60134BDB6813F0400FFC
:102AD80007D0124AD36943F00403D36140220E4B56
:102AE800DA600D4BDB6813F0800F07D00B4AD3690F
:102AF80043F00203D3618022074BDA60064BDB68A0
:102B080013F0020F07D0054AD36943F02003D361BD
:102B18000222014BDA607047003C0240EC0D0020B5
:102B2800094B1B69002B0ADA074B084A5A6002F165
:102B380088325A601B69002B03DB00207047002095
:102B480070470120704700BF003C024023016745E1
:102B5800034A136943F0004313610020704700BF24
:102B6800003C024038B504460022154BDA6100F0FB
:102B7800F7FA054608E0B4F1FF3F05D0D4B100F0FC
:102B8800EFFA401BA04217D80E4BDB6813F4803FC6
:102B9800F1D10C4BDB6813F0010F02D00122094B75
:102BA800DA60084BDB6813F0F20F07D0FFF772FF0B
:102BB800012038BD032038BD032038BD002038BDB2
:102BC800EC0D0020003C0240F8B51F461C4B1B7E54
:102BD800012B33D004460E4615460122184B1A76AF
:102BE8004CF25030FFF7BEFF034610BB24B9304605
:102BF800E9B2FFF73FFF12E0012C04D13046A9B239
:102C0800FFF726FF0BE0022C04D130462946FFF7D8
:102C18000DFF04E030462A463B46FFF7F1FE4CF232
:102C28005030FFF79FFF034606490A6922F0010268
:102C38000A610021024A11761846F8BD0220F8BD43
:102C4800EC0D0020003C0240074B1A6922F4407248
:102C58001A611A6942F004021A611A6942EA0020EC
:102C680040F4803018617047003C024031B10129BE
:102C780006D0022907D14FF4007106E0002104E0D4
:102C88004FF4807101E04FF440710B4B1A6922F444
:102C980040721A611A690A431A611A6922F0F80225
:102CA8001A611A6942EAC00040F0020018611A6904
:102CB80042F480321A617047003C0240164B1B6890
:102CC80013F4007F10D0144B1A6822F400721A60B3
:102CD8001A6842F400621A601A6822F400621A60E4
:102CE8001A6842F400721A600B4B1B6813F4806F69
:102CF80010D0094B1A6822F480621A601A6842F4EC
:102D080080521A601A6822F480521A601A6842F4D3
:102D180080621A60704700BF003C0240F8B5234B40
:102D28001B7E012B3FD00E46044601221F4B1A760C
:102D38004CF25030FFF716FF074678BB4FF0FF33D1
:102D480033602368012B0ED1207C6168FFF77CFF7C
:102D58004CF25030FFF706FF0746154A136923F077
:102D68000403136118E0A56811E02846217CFFF7E9
:102D78007DFF4CF25030FFF7F5FE0D4A136923F042
:102D8800FA031361074608B1356005E00135E268CA
:102D9800A3681344AB42E8D8FFF790FF0022034B27
:102DA8001A763846F8BD0220F8BD00BFEC0D0020A9
:102DB800003C02402DE9F04182B00023D3E09C465C
:102DC80001229A400C681440944240F0CB804D6830
:102DD800022D01D0122D14D14FEAD30808F10808AA
:102DE80050F8287003F0070E4FEA8E0E0F2505FAEB
:102DF8000EF527EA05060D6905FA0EF5354340F884
:102E0800285006684FEA430E032505FA0EF5ED43F0
:102E180005EA06074E6806F0030606FA0EF63E4374
:102E280006604E68771E012F03D9112E01D0122E8D
:102E380012D1866805EA0607CE6806FA0EF63E4302
:102E48008660476827EA02074E68C6F3001202FA4E
:102E58000CF646EA07024260C2682A408D6805FA05
:102E68000EF51543C5604A6812F0805F7AD00022DB
:102E78000192404A556C45F480455564526C02F401
:102E880080420192019A9A08961C3B4D55F826609B
:102E980003F00307BF000F25BD4026EA0506374D9E
:102EA800A8422BD005F58065A84225D005F5806598
:102EB800A8421FD005F58065A84219D005F58065A0
:102EC800A84213D005F58065A8420DD005F58065A8
:102ED800A84207D005F58065A84201D107250EE074
:102EE80008250CE006250AE0052508E0042506E08B
:102EF800032504E0022502E0012500E00025BD408D
:102F0800354302321C4E46F822501D4A1568E243EA
:102F180002EA05064F6817F4803F01D044EA050627
:102F2800174D2E606D6802EA05064F6817F4003FDA
:102F380001D044EA0506124D6E60AD6802EA050646
:102F48004F6817F4801F01D044EA05060C4DAE60A7
:102F5800ED682A404E6816F4001F01D044EA0502C5
:102F6800074CE26001330F2B7FF629AF02B0BDE8B2
:102F7800F08100BF003802400038014000000240E4
:102F8800003C014003690B4201D00120704700203A
:102F9800704700BF0AB181617047090481617047B9
:102FA8000122014B1A60704720000E4200F0070012
:102FB800064AD36823F4E0631B041B0C43EA002091
:102FC80040F0BF6040F40030D060704700ED00E092
:102FD80030B4164BDC68C4F30224C4F10705042D91
:102FE80028BF0425231D062B01D9033C00E000243B
:102FF800012303FA05F5013D2940A140A340013B07
:103008001A400A43002806DA00F00F001201D2B273
:10301800074B1A5407E01201D2B200F1604000F5E4
:10302800614080F8002330BC704700BF00ED00E02D
:1030380014ED00E0410900F01F0001238340024A1B
:1030480042F82130704700BF00E100E0BFF34F8F26
:103058000549CA6802F4E062044B1343CB60BFF32E
:103068004F8F00BFFDE700BF00ED00E00400FA0548
:103078000138B0F1807F0AD2064B5860F021064A29
:1030880082F823100020986007221A6070470120F8
:10309800704700BF10E000E000ED00E0042805D113
:1030A800054A136843F0040313607047024A136823
:1030B80023F004031360704710E000E0704700BF7E
:1030C80008B5FFF7FBFF08BD10B504460E4B18788E
:1030D8004FF47A73B3FBF0F30C4A1068B0FBF3F0CB
:1030E800FFF7C6FF58B90F2C0BD84FF0FF30214619
:1030F8000022FFF76DFF064B1C60002010BD012069
:1031080010BD012010BD00BF740000207800002011
:103118007000002008B50B4B1A6842F400721A6060
:103128001A6842F480621A601A6842F480721A605F
:103138000320FFF73BFF0020FFF7C6FFFDF734FF32
:10314800002008BD003C0240034A1368034909787F
:103158000B441360704700BF0C0E00207400002061
:10316800014B1868704700BF0C0E002038B50446A4
:10317800FFF7F6FF0546B4F1FF3F02D0044B1B787A
:103188001C44FFF7EDFF401B8442FAD838BD00BF4E
:10319800740000200F49D1F8883043F47003C1F857
:1031A80088300D4B1A6842F001021A6000209860BE
:1031B8001A6822F0847222F480321A60074A5A6030
:1031C8001A6822F480221A60D8604FF000638B607E
:1031D800704700BF00ED00E00038024010300024C6
:1031E80098B108B50346D0F8140210B10020C3F80E
:1031F800140209B1C3F81012012183F8FC111A70E6
:103208001846FDF763FD002008BD0220704700BF87
:1032180019B1C0F81412002070470220704700BF8F
:1032280008B5FDF78BFD002008BD00BF08B5D0F834
:10323800143223B11B68984718B1022008BD022038
:1032480008BD002008BD00BF08B5D0F814325B687F
:103258009847002008BD00BF38B5044600F5027540
:10326800284600F015F90123C4F8F431B4F80E32F9
:10327800C4F8F83194F8081201F01F03012B08D0A4
:1032880013B1022B0AD00EE02046294600F08AFA34
:103298000EE02046294600F0A9FA09E02046294612
:1032A80000F0C0FA04E0204601F08001FDF778FD47
:1032B800002038BD38B5044609BBD0F8F431032BDB
:1032C80026D1D0F80C31D0F810118B420AD95B1AEC
:1032D800C0F80C318B4228BF0B4611469AB200F059
:1032E80075FB15E0D0F814321B6923B190F8FC2166
:1032F800032A00D19847204600F072FB08E0D0F876
:1033080014329B6923B190F8FC21032A00D1984715
:10331800002038BD38B50446002942D1D0F8F43130
:10332800022B36D1C169036A99420CD9CB1AC36101
:1033380011469AB200F030FB204600210A460B469F
:10334800FDF786FD25E08169B1FBF3F203FB12125C
:1033580092B98B4210D8D0F8F83199420CD200219A
:103368000A4600F019FB0023C4F8F8312046194634
:103378001A46FDF76DFD0CE0D4F81432DB682BB16A
:1033880094F8FC21032A01D120469847204600F0F2
:1033980033FB94F80032012B0CD1002384F800325F
:1033A80008E0D0F814325B6923B190F8FC21032AB5
:1033B80000D19847002038BD38B5044600210A4698
:1033C8004023FDF7CBFC4025C4F81051204680214E
:1033D80000222B46FDF7C2FC2562012384F8FC314C
:1033E800D4F818322BB1D4F814325B68204621790E
:1033F8009847002038BD00BF01740020704700BF07
:1034080090F8FC3180F8FD31042380F8FC3100206D
:10341800704700BF90F8FD3180F8FC3100207047FC
:1034280008B590F8FC31032B04D1D0F81432DB69CD
:1034380003B19847002008BD00207047002070475E
:103448000020704708B5012280F8FC21D0F814222A
:10345800526801799047002008BD00BF034600204C
:1034680002E00130C0B201331A78002AF9D170475E
:103478004B88012B0BD110B50446C0F80432D0F8A4
:1034880014329B689847204600F0AAFA10BD70478E
:103498000B7803704B7843708B78CA7803EB022360
:1034A80043800B794A7903EB022383808B79CA79AD
:1034B80003EB0223C380704710B504468021FDF753
:1034C8006FFC20460021FDF76BFC10BD30B583B0C2
:1034D80004460D464A88130A013B062B00F28580F4
:1034E800DFE803F0040D238383657300D0F81032FE
:1034F8001B68007C0DF106019847014679E0037CC2
:103508004BB9D0F814329B6A0DF106009847014672
:10351800022343706DE0D0F81432DB6A0DF1060027
:10352800984701460223437063E0D2B2052A3AD88D
:10353800DFE802F0030C151E2730D0F810325B6864
:10354800007C0DF106019847014652E0D0F8103290
:103558009B68007C0DF106019847014649E0D0F8C8
:103568001032DB68007C0DF106019847014640E007
:10357800D0F810321B69007C0DF10601984701460E
:1035880037E0D0F810325B69007C0DF106019847EE
:1035980001462EE0D0F810329B69007C0DF106013F
:1035A8009847014625E02946FFF786FF2EE0037C71
:1035B8003BB9D0F814325B6B0DF106009847014611
:1035C80017E02946FFF778FF20E0037C4BB9D0F8D5
:1035D80014321B6B0DF10600984701460723437010
:1035E80007E02946FFF768FF10E02946FFF764FF68
:1035F8000CE0BDF806304BB1EA883AB19A4228BFD0
:103608001A46ADF80620204600F0B8F903B030BDE0
:1036180038B504468B88E3B9CB88D3B98D7805F0E3
:103628007F0590F8FC31032B02D1FFF745FF38BD29
:1036380080F8FE512946FDF7EBFB204600F0D0F953
:103648001DB1022384F8FC3138BD012384F8FC3114
:1036580038BD2046FFF730FF38BD00BF38B50446F7
:103668000D468978264B1970012903D92946FFF799
:1036780023FF38BD90F8FC31022B02D0032B15D064
:1036880039E081B14160032380F8FC31FFF7CEFDBA
:10369800022804D120462946FFF70EFF38BD2046F0
:1036A80000F09EF938BD00F09BF938BD49B90223F6
:1036B80080F8FC314160FFF7C7FD204600F090F923
:1036C80038BD4368994213D0D9B2FFF7BDFD0C4B02
:1036D800197861602046FFF7A9FD022804D1204629
:1036E8002946FFF7E9FE38BD204600F079F938BDD4
:1036F80000F076F938BD2946FFF7DEFE38BD00BF79
:103708007C05002008B50346CA88012A02D0FFF7C5
:10371800D3FE08BD90F8FC21022A02D0032A08D063
:103728000CE00146002241F8082F012200F026F99A
:1037380008BD191D012200F021F908BDFFF7BCFEE4
:1037480008BD00BF08B5034690F8FC21023A012ADB
:103758000DD80122C260D0F804220AB10322C26047
:10376800184603F10C01022200F008F908BDFFF722
:10377800A3FE08BD10B5044690F8FC31023B012BAE
:103788000DD84B88012B0CD10023C0F80432D0F897
:1037980014329B689847204600F022F910BDFFF7C5
:1037A8008BFE10BD08B54B78092B1BD8DFE803F05A
:1037B80011171A141A08051A0E0BFFF787FE13E0E3
:1037C800FFF726FF10E0FFF749FF0DE0FFF79AFF2C
:1037D8000AE0FFF7B7FF07E0FFF74AFE04E0FFF74C
:1037E800C9FF01E0FFF768FE002008BD38B50446B0
:1037F8000D4690F8FC31032B0FD10B79012B09D81A
:10380800D0F814329B689847EB8843B9204600F0FB
:10381800E7F804E0FFF750FE01E0FFF74DFE002057
:1038280038BD00BF38B505460C468A88D1B2237822
:1038380003F06003202B05D1D0F814329B68214691
:1038480098477BE06378012B26D0002B48D0032BC8
:1038580074D190F8FC31022B02D0032B07D017E06B
:1038680000296BD0802969D0FDF79AFA66E0638851
:1038780023B919B1802901D0FDF792FAD5F814328D
:103888009B68284621469847284600F0A9F855E045
:103898002146FFF711FE51E090F8FC31022B02D0CF
:1038A800032B07D018E0002948D0802946D0FDF71F
:1038B80077FA43E06388002B40D111F07F0F07D0DF
:1038C800FDF77EFAD5F814329B68284621469847BA
:1038D800284600F085F831E02146FFF7EDFD2DE0A0
:1038E80090F8FC31022B02D0032B06D023E011F014
:1038F8007F0F23D0FDF754FA20E012F0800F05D097
:1039080001F07F0400EB0414143405E001F07F0497
:1039180000EB041404F582742846FDF761FA10B12F
:103928000123236001E00023236028462146022268
:1039380000F024F802E02146FFF7BEFD002038BD64
:10394800D0B170B50D4616460446FFF787FD013025
:10395800400080B23080287003236B70022307E098
:103968005A1CD2B20134E954531CDBB20021A954C9
:1039780021780029F4D170BD704700BF38B50D46D5
:1039880013460222C0F8F4218361C36100212A464C
:10399800FDF74EFA002038BD10B50C46134600213D
:1039A8002246FDF745FA002010BD00BF38B50D4688
:1039B80013460322C0F8F421C0F80831C0F80C31CE
:1039C80000212A46FDF744FA002038BD10B50C4600
:1039D800134600212246FDF73BFA002010BD00BF28
:1039E80008B50423C0F8F43100210A460B46FDF758
:1039F8001FFA002008BD00BF08B50523C0F8F43140
:103A080000210A460B46FDF723FA002008BD00BF37
:103A1800292303800048704788000020D0F8183216
:103A2800002083F85000704710B5D0F81842E36CB6
:103A3800012B07D1D0F81C32DB68207861789847D1
:103A48000023E364002010BD0A2303800048704768
:103A5800EC00002038B50546D0F81842D0F81C32E2
:103A6800DB68207861789847284601212246402360
:103A7800FDF7EEF9002038BD10B50B46D0F8181246
:103A88001C7814F060042DD0202C53D15A78023AB7
:103A9800092A22D8DFE802F0140921212121211A5C
:103AA8000F059B780B64002445E040310122FFF7A5
:103AB80065FF00243FE05B881B0A4B6400243AE062
:103AC80044310122FFF75AFF002434E00122CA647E
:103AD8009A79FFF76BFF00242DE01946FFF7ECFCFD
:103AE800022428E05A780A2A1CD00B2A1FD0062A5A
:103AF80021D15A88120A222A07D1DA88142A28BF23
:103B08001422D0F81C32196809E0212A05D1DA8874
:103B1800092A28BF0922094901E000210A46FFF7BE
:103B28002DFF08E048310122FFF728FF03E09B78CA
:103B38008B6400E00024204610BD00BF7C000020FC
:103B480010B504468121FDF71BF920460121FDF738
:103B580017F9D4F8183253B1D4F81C329B68984737
:103B6800D4F8180200F0A0F80023C4F81832002096
:103B780010BD00BF70B50546812103220823FDF75B
:103B8800EDF82846012103224023FDF7E7F85420E9
:103B980000F082F80446C5F8180270B1002680F8D3
:103BA8005060D5F81C325B689847284601212246A8
:103BB8004023FDF74DF9304670BD012070BD00BFB0
:103BC80038B5D0F8185290F8FC41032C0AD195F872
:103BD80050303BB913460A46012185F8501081211F
:103BE800FDF726F9002038BD19B1C0F81C120020D5
:103BF80070470220704700BFDFF834D0002103E08F
:103C08000C4B5B58435004310B480C4B42189A42FA
:103C1800F6D30B4A02E0002342F8043B094B9A42D0
:103C2800F9D3FFF7B7FA00F011F8FCF7DDFE70479B
:103C3800000002201C3F0008000000205C0100205A
:103C48005C010020140E0020FEE7000070B50E4B4A
:103C58000E4CE41AA41000251E46A54204D056F8BE
:103C6800253098470135F8E700F0EEF8084C094B85
:103C7800E41AA41000251E46A54204D056F82530A3
:103C880098470135F8E770BD143F0008143F000855
:103C9800183F0008143F0008024B0146186800F05E
:103CA8005FB800BF58010020024B0146186800F0B9
:103CB80013B800BF5801002010B50A44441E9142B1
:103CC80008D014F8013F0878834201D0181A10BDB3
:103CD8000131F4E7002010BD30B500293DD051F87E
:103CE800042C0B1F1D49002AB8BF9B180A680C46F4
:103CF80012B95A600B6030BD93420DD2196858183A
:103D0800904201BF5A5852181A6042685A6023609C
:103D180030BD994203D80A4651680029F9D1146880
:103D280015199D420AD11B682344D0188842136094
:103D380013D10868034413604B680DE002D90C23C3
:103D4800036030BD1C681819884204BF08684968B8
:103D5800596004BF00191860536030BD8405002005
:103D680070B5CC1C24F0030408340C2C38BF0C2488
:103D7800002C064603DA0C233360002070BD8C4209
:103D8800F9D3204A136810461946A1B10A68121BD4
:103D98000ED40B2A03D90A608B188C501FE08B4273
:103DA8000DBF5A684A685A60026018BF0B4616E091
:103DB8000B464968E9E7144D2B681BB9304600F0FB
:103DC80025F828603046214600F020F8421C0346BA
:103DD800D1D0C51C25F0030585420AD11C6003F12A
:103DE8000B001A1D20F00700821A0AD05142995080
:103DF80070BD3046E91A00F009F80130BBD02B46F7
:103E0800ECE770BD840500208005002038B5064C1D
:103E1800002305460846236000F008F8431C02D139
:103E2800236803B12B6038BD100E0020044A0549F1
:103E38001368002B08BF0B461844106018467047DB
:103E480088050020180E0020F8B500BFF8BC08BC93
:103E58009E467047F8B500BFF8BC08BC9E46704740
:103E68005372632F6D61696E2E6300005372632F66
:103E7800757362645F636F6E662E630053544D33CF
:103E8800322048494420626F6F746C6F61646572B8
:103E9800000000007777772E736572617369646933
:103EA800732E6772000000003132333435363738EC
:103EB8003930000053544D33322048494420626F52
:103EC8006F746C6F6164657220436F6E666967001A
:103ED80053544D33322048494420626F6F746C6FDD
:103EE8006164657220496E7465726661636500007D
:103EF8000000000000000000010203040607080992
:043F08004300000072
:083F0C00B4C3FF7F01000000B7
:043F1400F5010008AB
:043F1800CD010008CF
:103F1C000100000042544C44434D440242544C4472
:103F2C00434D440010000000790E0008850E000877
:103F3C00B50E0008910E0008D10E0008F50E000811
:103F4C00190F0008040309041201000200000040CC
:103F5C000912BABE00020102030100005C0000203D
:103F6C003D0F0008410F0008450F00080600FF092F
:103F7C0000A101750895409103750895088103C04F
:103F8C0010000000010000000024F40009211101C0
:103F9C00000122140000000009022900010100C0E8
:103FAC003209040000020300000009211101000184
:103FBC0022140007058103080020070501014000B9
:103FCC00200000007D3B0008493B0008813A0008B6
:103FDC0000000000313A0008253A00085D3A00085C
:103FEC00000000000000000000000000193A00086A
:103FFC00193A0008193A0008513A00080A0600025A
:10400C000000004001000000000000000000000063
:10401C000000000000000000000000000000000094
:10402C000000000000000000083F00080000000035
:10403C000000000000000000000000000000000074
:10404C000000000000000000000000000000000064
:10405C000000000000000000000000000000000054
:0C406C000000000000000000F800002030
:0400000508003C01B2
:00000001FF
