:020000040800F2
:1000000000500020A50A0008ED0A0008ED0A0008CB
:10001000ED0A0008ED0A0008ED0A000800000000E3
:10002000000000000000000000000000ED0A0008D1
:10003000ED0A000800000000ED0A0008ED0A0008C3
:10004000ED0A0008ED0A0008ED0A0008ED0A0008B4
:10005000ED0A0008ED0A0008ED0A0008ED0A0008A4
:10006000ED0A0008ED0A0008ED0A0008ED0A000894
:10007000ED0A0008ED0A0008ED0A0008ED0A000884
:10008000ED0A0008ED0A0008ED0A0008ED0A000874
:1000900075050008ED0A0008ED0A0008ED0A0008E1
:1000A000ED0A0008ED0A0008ED0A0008ED0A000854
:1000B000ED0A0008ED0A0008ED0A0008ED0A000844
:1000C000ED0A0008ED0A0008ED0A0008ED0A000834
:1000D000ED0A0008ED0A0008ED0A0008ED0A000824
:1000E000ED0A0008ED0A0008ED0A00080000000013
:1000F0000000000000000000000000000000000000
:0C01000000000000000000005FF808F1A3
:10010C0010B5054C237833B9044B13B10448AFF345
:10011C0000800123237010BD0800002000000000A7
:10012C00480C000808B5034B1BB103490348AFF357
:10013C00008008BD000000000C000020480C0008E6
:10014C000C4B10B5DA690C4C42F0C052DA61208DC0
:10015C0080B250B1094A116841F4807111600021DC
:10016C002185116821F480711160DA6922F0C05286
:10017C00DA6110BD00100240006C004000700040BD
:10018C0003680348184000F16043584258417047D7
:10019C000000FE2F0023834200D1704700BF0133C3
:1001AC00F9E70000044608B50C4A2046FFF7F2FFB9
:1001BC001368591CB3F57A7F1160F6D100F04CF935
:1001CC00BFF34F8F0649074BCA6802F4E062134332
:1001DC00CB60BFF34F8F00BFFDE700BF24000020B2
:1001EC0000ED00E00400FA05F8B5374D374B384CFC
:1001FC001F68AB69374A43F00403AB616368364E42
:10020C0023F0030363606368482023F004036360F6
:10021C00636843F008036360E36843F48073E3604E
:10022C00AB6943F00803AB61136823F440731360AC
:10023C00136843F480631360136823F40063136042
:10024C00FFF7A8FF3046FFF79BFF38B92349244836
:10025C0000F042F9234B1B7863B9FEE793685B0708
:10026C000CD500F0F9F82048FFF794FF1B491C4807
:10027C0000F032F944F62060FFF794FFFFF760FFBF
:10028C0044F24C239842ECD0636823F00303636080
:10029C00636843F004036360636823F008036360DE
:1002AC00E36823F48073E360AB6923F00403AB6170
:1002BC00AB6923F00803AB610C4B9E60336883F38E
:1002CC000888B847FEE700BF001002400410000881
:1002DC0000080140000C0140001000084106000815
:1002EC00F10800082800002000093D0000ED00E0A6
:1002FC0030B5134CC1002268124B92B20A4413441D
:10030C0048225B001D78104B02FB0030002280F865
:10031C00445023689BB219440C4B0B445B001B8864
:10032C0003F1005303F540535B00D1B28D4200D86A
:10033C0030BD33F8221020F812100132F5E700BF5F
:10034C00505C0040063000203000002004300020BB
:10035C002DE9F0434827214EDFF888E007FB0061C8
:10036C0091F8464091F84550DEF80020AC4228BF89
:10037C002C46C3001FFA82FC194A9C44624452006A
:10038C001460DEF800204FF0000C92B2134403F11D
:10039C00005303F540535B001A880B4602F10052E0
:1003AC0002F5405204F1010E52004FEA6E0E5FFA54
:1003BC008CF171454FEA8C080CF1010C06DB07FB44
:1003CC0000602C1B80F84540BDE8F083196C31F8B7
:1003DC00029B48F802901964E9E700BF3000002046
:1003EC0002300020505C004010B5044618B1164B8A
:1003FC001B889BB2E3B14823144803FB040383F826
:10040C0045201964AAB12046FFF7A2FFA40004F10D
:10041C00804404F5B844236823F4E04323F04003FC
:10042C009BB283F0300343F4004343F0800323601A
:10043C0010BD074B1968074B89B201EBC4010B4483
:10044C005B001A60E2E700BF2A00002030000020A9
:10045C00505C0040023000204FF48011164A936922
:10046C0043F004039361154BC3F880100023144927
:10047C000B6014490B8014490B8014490B60144910
:10048C000B600321134B196003F52B43C0335968E0
:10049C0041F480215960596821F400215960596850
:1004AC0041F4403159604FF480515961D36923F4C0
:1004BC000003D361704700BF0010024000E100E070
:1004CC00445C00402C0000202A000020C0000020CA
:1004DC00C4000020405C00400023194AA2F84430BC
:1004EC00A2F88C30174A1060174A116017498A69B4
:1004FC0042F004028A61164A506840F48020506031
:10050C00506820F400205060506820F44030506057
:10051C00104A1380104A1380CA6942F40002CA615F
:10052C004FF480110D4A116001210D4A11600D49E3
:10053C00136008680B604FF4E0531360704700BF02
:10054C0030000020C0000020C40000200010024039
:10055C00000801402C0000202A00002000E100E0EF
:10056C00405C0040445C00402D4B10B51A681C46A2
:10057C0012F4806F0BD01A6822F480621204120CF1
:10058C001A60284B1B687BB1BDE8104018471A68ED
:10059C0012040AD5244B1B6813B1206880B298470B
:1005AC002368C3F30E03236010BD1A6812F4804253
:1005BC0006D01A6822F480421204120C1A60F3E777
:1005CC00196808050ED54FF2FF70196801401960C3
:1005DC00164B19684906E7D01A60154A1368034090
:1005EC001360E1E71A6812F4005F1A6802D022F473
:1005FC000052E1E712F4805F1A6802D022F48052B4
:10060C00DAE712F4007F1A6802D022F40072D3E702
:10061C0012F48072D2D01A6822F48072CCE700BF38
:10062C00445C0040C4000020C00000204C5C004032
:10063C00405C004070B500F017FA00F005FA042297
:10064C00354B364D1A700023354A364C1380364ADA
:10065C002B60136848F28000234043F400739BB274
:10066C0013602968314B89B20B4418215B00196067
:10067C0058212B682E4E9BB203F1005303F54053C7
:10068C005B00196013682B4923F4F8731B051B0DD1
:10069C0003431360136833409BB283F4405303430A
:1006AC0013600B681C4044F4C064A4B20C602C684A
:1006BC00214BA4B223444FF480745B001C602C6863
:1006CC001E4BA4B2234408245B001C600B6833400F
:1006DC0040F60F7603439BB20B600B6823F4E043A8
:1006EC0023F040039BB283F0200303430B60156897
:1006FC00354028431060124A82F846400B6833405C
:10070C0043F4004343F081030B6082F88E40802257
:10071C000C4B1A6070BD00BF07000020505C0040FD
:10072C00C80000208F89FFFF005C004004300020CF
:10073C008FBFFFFF045C0040083000200A3000200F
:10074C00300000204C5C0040C378022B17D004D83A
:10075C00012B0CD0002211460EE0032B15D0222BBE
:10076C00F8D182791549202A28BF202204E0827909
:10077C001349122A28BF12220020FFF735BE8279B6
:10078C001049222A28BF2222F6E78378012B0ED0AB
:10079C0007D3022BDED182790B492C2A28BF2C22BD
:1007AC00EAE782790949042A28BF0422E4E782791E
:1007BC0007492A2A28BF2A22DEE700BFEE0C0008D0
:1007CC00DC0C0008BA0C0008640C0008600C000873
:1007DC00900C000870B53A4C02682388394D9BB2D6
:1007EC00EA50E9182388426808339BB22380238897
:1007FC004A609BB2802B15D100260823EA5C01339A
:10080C00802B46EA0206F9D15EB907222E492D4803
:10081C0000F004FA28B9EB791BB904222B4B1A709F
:10082C00268070BD2388B3F5806FFAD300F014F9DD
:10083C002649274B0A78274802F50032586000F108
:10084C00883092025860D868C007FCD4186940F010
:10085C00020018615A61186940F0400018611C4B85
:10086C001846DE68F607FCD41E6926F002061E61E7
:10087C00C36813F00103FBD1066946F0010606615B
:10088C001348EE5A9E52C66816F00106FBD102338D
:10089C00B3F5806FF5D1036923F00103036103699C
:1008AC0043F0800303610B780133DBB20B702680BD
:1008BC0000F0CAF80122084B1E60084B1A60B0E722
:1008CC00C8000020CA000020000000200700002003
:1008DC00002002402301674524000020280000204E
:1008EC0070470000F8B500F00F05AC0004F180442F
:1008FC0004F5B84427683904BEB22ED52846FFF754
:10090C00F7FC4948002D7DD13A0574D543780A2B64
:10091C005DD8DFE803F04F5C5C5C5C060C5C555802
:10092C0009008278414B1A700022114644E03E487F
:10093C00FFF70AFF236823F070031B051B0D2360D0
:10094C00236823F4804323F070039BB283F4405359
:10095C0043F4004343F080032360330629D5334B23
:10096C001A7832B11A78324942F080020A600022B9
:10097C001A7048232C4A03FB052393F84520002AC0
:10098C0048D02846FFF7E4FC236823F4E04323F027
:10099C0040039BB283F0300343F4004343F08003E5
:1009AC002360236823F4E14323F070031B041B0C26
:1009BC002360F8BD02221F490020FFF715FDB9E79F
:1009CC0001221D49F8E701221B4B1A80ACE70022DB
:1009DC0011461046FFF708FD184A136823F4E0434C
:1009EC0023F040039BB283F0100343F4004343F025
:1009FC00800313609EE790F84430002B9AD0FFF7E9
:100A0C00E9FE97E7482303FB050090F84410FFF735
:100A1C0067FF8FE70A4B1B689BB203EBC505094BBD
:100A2C002B445B001A60AFE7300000202900002047
:100A3C004C5C00402C0000202A000020005C004090
:100A4C00505C0040023000204FF40052014B1A6100
:100A5C00704700BF001001404FF40052014B5A6127
:100A6C00704700BF00100140094A936943F010031E
:100A7C009361084B5A6842F480025A605A6822F417
:100A8C0000025A605A6842F440125A60704700BF24
:100A9C000010024000100140002103E00B4B5B589A
:100AAC00435004310A480B4B42189A42F6D30A4A77
:100ABC0002E0002342F8043B084B9A42F9D300F0C1
:100ACC0011F800F087F8FFF78FFB7047180D00083E
:100ADC00000000200800002008000020CC040020AA
:100AEC00FEE70000374B82B01A6842F001021A6030
:100AFC005968354A0A405A601A6822F0847222F406
:100B0C0080321A601A6822F480221A605A6822F421
:100B1C00FE025A604FF41F029A600022009201926A
:100B2C001A6842F480321A601A6802F40032019298
:100B3C00009A01320092019A1AB9009AB2F5A06F8C
:100B4C00F2D11A6812F4003218BF01220192019AF4
:100B5C00012A30D11D4A116841F010011160116851
:100B6C0021F007011160116841F0020111605A680F
:100B7C005A605A685A605A6842F480625A605A68DD
:100B8C0022F47C125A605A6842F4E8125A601A68CD
:100B9C0042F080721A601A689201FCD55A6822F0F1
:100BAC0003025A605A6842F002025A605A6802F014
:100BBC000C02082AFAD14FF00062054B9A6002B081
:100BCC00704700BF001002400000FFF800200240F8
:100BDC0000ED00E070B500250C4E0D4CA41BA410CC
:100BEC00A54209D100F02AF800250A4E0A4CA41B94
:100BFC00A410A54205D170BD56F825309847013593
:100C0C00EEE756F8253098470135F2E7100D00084D
:100C1C00100D0008100D0008140D000830B500244C
:100C2C00A24201D1002007E0035D01340D1915F833
:100C3C00015CAB42F4D0581B30BD0000F8B500BFCE
:100C4C00F8BC08BC9E467047F8B500BFF8BC08BCA1
:040C5C009E467047F9
:100C6000040309042C03530054004D0033003200E8
:100C700046002000480049004400200042006F0068
:100C80006F0074006C006F0061006400650072000A
:100C90002A037700770077002E006200720075004B
:100CA0006E006F00660072006500690074006100EC
:100CB00073002E0063006F006D0009022200010125
:100CC00000C03209040000010300000009211101E5
:100CD0000001222000070581030800051201100110
:100CE0000000000855F001000100010200010600AB
:100CF000FF0901A1010902150025FF75089508816A
:100D0000020903150025FF750895809102C00000B7
:040D100031010008A5
:040D14000D010008C5
:080D180042544C44434D4404D5
:0400000508000AA540
:00000001FF
